{
  "contractName": "AccountStorageAdapter",
  "abi": [
    {
      "constant": false,
      "inputs": [],
      "name": "renounceOwnership",
      "outputs": [],
      "payable": false,
      "stateMutability": "nonpayable",
      "type": "function"
    },
    {
      "constant": true,
      "inputs": [],
      "name": "owner",
      "outputs": [
        {
          "name": "",
          "type": "address"
        }
      ],
      "payable": false,
      "stateMutability": "view",
      "type": "function"
    },
    {
      "constant": false,
      "inputs": [
        {
          "name": "newOwner",
          "type": "address"
        }
      ],
      "name": "transferOwnership",
      "outputs": [],
      "payable": false,
      "stateMutability": "nonpayable",
      "type": "function"
    },
    {
      "inputs": [
        {
          "name": "contextstorage",
          "type": "address"
        }
      ],
      "payable": false,
      "stateMutability": "nonpayable",
      "type": "constructor"
    },
    {
      "anonymous": false,
      "inputs": [
        {
          "indexed": true,
          "name": "previousOwner",
          "type": "address"
        }
      ],
      "name": "OwnershipRenounced",
      "type": "event"
    },
    {
      "anonymous": false,
      "inputs": [
        {
          "indexed": true,
          "name": "previousOwner",
          "type": "address"
        },
        {
          "indexed": true,
          "name": "newOwner",
          "type": "address"
        }
      ],
      "name": "OwnershipTransferred",
      "type": "event"
    },
    {
      "constant": false,
      "inputs": [
        {
          "name": "data",
          "type": "string"
        },
        {
          "name": "objectType",
          "type": "string"
        },
        {
          "name": "accountFieldName",
          "type": "uint8"
        }
      ],
      "name": "setAccountFieldMainData",
      "outputs": [],
      "payable": false,
      "stateMutability": "nonpayable",
      "type": "function"
    },
    {
      "constant": true,
      "inputs": [
        {
          "name": "accountAddress",
          "type": "address"
        },
        {
          "name": "accountFieldName",
          "type": "uint8"
        }
      ],
      "name": "getLastAccountDataVerifiedBy",
      "outputs": [
        {
          "name": "verifiedBy",
          "type": "address"
        }
      ],
      "payable": false,
      "stateMutability": "view",
      "type": "function"
    },
    {
      "constant": true,
      "inputs": [
        {
          "name": "accountAddress",
          "type": "address"
        },
        {
          "name": "accountFieldName",
          "type": "uint8"
        },
        {
          "name": "index",
          "type": "uint256"
        }
      ],
      "name": "getAccountDataVerifiedBy",
      "outputs": [
        {
          "name": "verifiedBy",
          "type": "address"
        }
      ],
      "payable": false,
      "stateMutability": "view",
      "type": "function"
    },
    {
      "constant": true,
      "inputs": [
        {
          "name": "accountAddress",
          "type": "address"
        },
        {
          "name": "accountFieldName",
          "type": "uint8"
        }
      ],
      "name": "getAccountFieldLastMainData",
      "outputs": [
        {
          "name": "data",
          "type": "string"
        },
        {
          "name": "objectType",
          "type": "string"
        }
      ],
      "payable": false,
      "stateMutability": "view",
      "type": "function"
    },
    {
      "constant": true,
      "inputs": [
        {
          "name": "accountAddress",
          "type": "address"
        },
        {
          "name": "accountFieldName",
          "type": "uint8"
        },
        {
          "name": "index",
          "type": "uint256"
        }
      ],
      "name": "getAccountFieldMainData",
      "outputs": [
        {
          "name": "data",
          "type": "string"
        },
        {
          "name": "objectType",
          "type": "string"
        }
      ],
      "payable": false,
      "stateMutability": "view",
      "type": "function"
    },
    {
      "constant": true,
      "inputs": [
        {
          "name": "accountAddress",
          "type": "address"
        },
        {
          "name": "accountFieldName",
          "type": "uint8"
        }
      ],
      "name": "getAccountFieldLastVerificationData",
      "outputs": [
        {
          "name": "isVerified",
          "type": "bool"
        },
        {
          "name": "verifiedBy",
          "type": "address"
        },
        {
          "name": "verifiedAt",
          "type": "uint256"
        }
      ],
      "payable": false,
      "stateMutability": "view",
      "type": "function"
    },
    {
      "constant": true,
      "inputs": [
        {
          "name": "accountAddress",
          "type": "address"
        },
        {
          "name": "accountFieldName",
          "type": "uint8"
        },
        {
          "name": "index",
          "type": "uint256"
        }
      ],
      "name": "getAccountFieldVerificationData",
      "outputs": [
        {
          "name": "isVerified",
          "type": "bool"
        },
        {
          "name": "verifiedBy",
          "type": "address"
        },
        {
          "name": "verifiedAt",
          "type": "uint256"
        }
      ],
      "payable": false,
      "stateMutability": "view",
      "type": "function"
    },
    {
      "constant": false,
      "inputs": [
        {
          "name": "accountAddress",
          "type": "address"
        },
        {
          "name": "accountFieldName",
          "type": "uint8"
        },
        {
          "name": "isVerified",
          "type": "bool"
        },
        {
          "name": "verifiedBy",
          "type": "address"
        },
        {
          "name": "verifiedAt",
          "type": "uint256"
        }
      ],
      "name": "setAccountFieldVerificationData",
      "outputs": [],
      "payable": false,
      "stateMutability": "nonpayable",
      "type": "function"
    },
    {
      "constant": false,
      "inputs": [
        {
          "name": "accountAddress",
          "type": "address"
        },
        {
          "name": "accountFieldName",
          "type": "uint8"
        },
        {
          "name": "index",
          "type": "uint256"
        },
        {
          "name": "isVerified",
          "type": "bool"
        },
        {
          "name": "verifiedBy",
          "type": "address"
        },
        {
          "name": "verifiedAt",
          "type": "uint256"
        }
      ],
      "name": "setAccountFieldVerificationData",
      "outputs": [],
      "payable": false,
      "stateMutability": "nonpayable",
      "type": "function"
    },
    {
      "constant": true,
      "inputs": [
        {
          "name": "accountAddress",
          "type": "address"
        },
        {
          "name": "accountFieldName",
          "type": "uint8"
        }
      ],
      "name": "getFieldHistoryLength",
      "outputs": [
        {
          "name": "length",
          "type": "uint256"
        }
      ],
      "payable": false,
      "stateMutability": "view",
      "type": "function"
    }
  ],
  "bytecode": "0x608060405234801561001057600080fd5b50604051602080613a64833981016040525160008054600160a060020a0319908116331790915560018054600160a060020a0390931692909116919091179055613a058061005f6000396000f3006080604052600436106100ab5763ffffffff60e060020a6000350416632ad6f40f81146100b05780632ea0d356146100e9578063617aaa1114610122578063715018a61461022a5780638da5cb5b1461023f5780639290b93714610270578063a7075d9e14610297578063bc603ad1146102e9578063cb8c012b14610385578063cfbf4030146103ac578063f2fde38b146103d6578063f7b2b7a9146103f7578063fbaf12bb1461041e575b600080fd5b3480156100bc57600080fd5b506100d7600160a060020a036004351660ff60243516610459565b60408051918252519081900360200190f35b3480156100f557600080fd5b50610120600160a060020a0360043581169060ff60243516906044351515906064351660843561068f565b005b34801561012e57600080fd5b5061014c600160a060020a036004351660ff602435166044356106b3565b604051808060200180602001838103835285818151815260200191508051906020019080838360005b8381101561018d578181015183820152602001610175565b50505050905090810190601f1680156101ba5780820380516001836020036101000a031916815260200191505b50838103825284518152845160209182019186019080838360005b838110156101ed5781810151838201526020016101d5565b50505050905090810190601f16801561021a5780820380516001836020036101000a031916815260200191505b5094505050505060405180910390f35b34801561023657600080fd5b50610120610f4d565b34801561024b57600080fd5b50610254610fb9565b60408051600160a060020a039092168252519081900360200190f35b34801561027c57600080fd5b50610254600160a060020a036004351660ff60243516610fc8565b3480156102a357600080fd5b506102c1600160a060020a036004351660ff60243516604435610fea565b604080519315158452600160a060020a03909216602084015282820152519081900360600190f35b3480156102f557600080fd5b506040805160206004803580820135601f810184900484028501840190955284845261012094369492936024939284019190819084018382808284375050604080516020601f89358b018035918201839004830284018301909452808352979a9998810197919650918201945092508291508401838280828437509497505050923560ff16935061193892505050565b34801561039157600080fd5b506102c1600160a060020a036004351660ff60243516611949565b3480156103b857600080fd5b50610254600160a060020a036004351660ff60243516604435611974565b3480156103e257600080fd5b50610120600160a060020a0360043516611eec565b34801561040357600080fd5b5061014c600160a060020a036004351660ff60243516611f80565b34801561042a57600080fd5b50610120600160a060020a0360043581169060ff6024351690604435906064351515906084351660a435611fa8565b6000606083836040805190810160405280600681526020017f6c656e67746800000000000000000000000000000000000000000000000000008152506040516020018084600160a060020a0316600160a060020a031681526020018360058111156104c057fe5b60ff16815260200180602001828103825283818151815260200191508051906020019080838360005b838110156105015781810151838201526020016104e9565b50505050905090810190601f16801561052e5780820380516001836020036101000a031916815260200191505b50945050505050604051602081830303815290604052905061054e61286f565b600160a060020a031663293b0c4e6040518163ffffffff1660e060020a028152600401602060405180830381600087803b15801561058b57600080fd5b505af115801561059f573d6000803e3d6000fd5b505050506040513d60208110156105b557600080fd5b50516040518251600160a060020a039092169163bd02d0f5918491819060208401908083835b602083106105fa5780518252601f1990920191602091820191016105db565b51815160209384036101000a60001901801990921691161790526040805192909401829003822063ffffffff881660e060020a0283526004830152925160248083019650939450929083900301905081600087803b15801561065b57600080fd5b505af115801561066f573d6000803e3d6000fd5b505050506040513d602081101561068557600080fd5b5051949350505050565b600061069b8686610459565b90506106ab868683878787611fa8565b505050505050565b606080600060608060608860006106c861286f565b905080600160a060020a03166322d2dd346040518163ffffffff1660e060020a028152600401602060405180830381600087803b15801561070857600080fd5b505af115801561071c573d6000803e3d6000fd5b505050506040513d602081101561073257600080fd5b50516040805160e060020a633b562a6d0281523360048201529051600160a060020a0390921691633b562a6d916024808201926020929091908290030181600087803b15801561078157600080fd5b505af1158015610795573d6000803e3d6000fd5b505050506040513d60208110156107ab57600080fd5b505180610897575080600160a060020a031663b819723a6040518163ffffffff1660e060020a028152600401602060405180830381600087803b1580156107f157600080fd5b505af1158015610805573d6000803e3d6000fd5b505050506040513d602081101561081b57600080fd5b50516040805160e060020a633b562a6d0281523360048201529051600160a060020a0390921691633b562a6d916024808201926020929091908290030181600087803b15801561086a57600080fd5b505af115801561087e573d6000803e3d6000fd5b505050506040513d602081101561089457600080fd5b50515b80610913575080600160a060020a031663beb837126040518163ffffffff1660e060020a028152600401602060405180830381600087803b1580156108db57600080fd5b505af11580156108ef573d6000803e3d6000fd5b505050506040513d602081101561090557600080fd5b5051600160a060020a031633145b806109285750600054600160a060020a031633145b806109a4575080600160a060020a0316638da5cb5b6040518163ffffffff1660e060020a028152600401602060405180830381600087803b15801561096c57600080fd5b505af1158015610980573d6000803e3d6000fd5b505050506040513d602081101561099657600080fd5b5051600160a060020a031633145b806109b7575033600160a060020a038316145b15156109c257600080fd5b6109ca61286f565b600160a060020a031663293b0c4e6040518163ffffffff1660e060020a028152600401602060405180830381600087803b158015610a0757600080fd5b505af1158015610a1b573d6000803e3d6000fd5b505050506040513d6020811015610a3157600080fd5b50519550610a3e8a6128ff565b94508a858a610a4d6000612ad6565b6040516020018085600160a060020a0316600160a060020a031681526020018060200184815260200180602001838103835286818151815260200191508051906020019080838360005b83811015610aaf578181015183820152602001610a97565b50505050905090810190601f168015610adc5780820380516001836020036101000a031916815260200191505b50838103825284518152845160209182019186019080838360005b83811015610b0f578181015183820152602001610af7565b50505050905090810190601f168015610b3c5780820380516001836020036101000a031916815260200191505b509650505050505050604051602081830303815290604052935085600160a060020a031663986e791a856040518082805190602001908083835b60208310610b955780518252601f199092019160209182019101610b76565b5181516020939093036101000a60001901801990911692169190911790526040805191909301819003812063ffffffff871660e060020a0282526004820152915160248084019550600094509092839003019050818387803b158015610bfa57600080fd5b505af1158015610c0e573d6000803e3d6000fd5b505050506040513d6000823e601f3d908101601f191682016040526020811015610c3757600080fd5b810190808051640100000000811115610c4f57600080fd5b82016020810184811115610c6257600080fd5b8151640100000000811182820187101715610c7c57600080fd5b505092919050505097508a858a610c936001612ad6565b6040516020018085600160a060020a0316600160a060020a031681526020018060200184815260200180602001838103835286818151815260200191508051906020019080838360005b83811015610cf5578181015183820152602001610cdd565b50505050905090810190601f168015610d225780820380516001836020036101000a031916815260200191505b50838103825284518152845160209182019186019080838360005b83811015610d55578181015183820152602001610d3d565b50505050905090810190601f168015610d825780820380516001836020036101000a031916815260200191505b5096505050505050506040516020818303038152906040529250610da461286f565b600160a060020a031663293b0c4e6040518163ffffffff1660e060020a028152600401602060405180830381600087803b158015610de157600080fd5b505af1158015610df5573d6000803e3d6000fd5b505050506040513d6020811015610e0b57600080fd5b50516040518451600160a060020a039092169163986e791a918691819060208401908083835b60208310610e505780518252601f199092019160209182019101610e31565b5181516020939093036101000a60001901801990911692169190911790526040805191909301819003812063ffffffff871660e060020a0282526004820152915160248084019550600094509092839003019050818387803b158015610eb557600080fd5b505af1158015610ec9573d6000803e3d6000fd5b505050506040513d6000823e601f3d908101601f191682016040526020811015610ef257600080fd5b810190808051640100000000811115610f0a57600080fd5b82016020810184811115610f1d57600080fd5b8151640100000000811182820187101715610f3757600080fd5b509b9f909e509c50505050505050505050505050565b600054600160a060020a03163314610f6457600080fd5b60008054604051600160a060020a03909116917ff8df31144d9c2f0f6b59d69b8b98abd5459d07f2742c4df920b25aae33c6482091a26000805473ffffffffffffffffffffffffffffffffffffffff19169055565b600054600160a060020a031681565b600080610fd58484610459565b9050610fe2848483611974565b949350505050565b6000806000806060806060808a600061100161286f565b905080600160a060020a03166322d2dd346040518163ffffffff1660e060020a028152600401602060405180830381600087803b15801561104157600080fd5b505af1158015611055573d6000803e3d6000fd5b505050506040513d602081101561106b57600080fd5b50516040805160e060020a633b562a6d0281523360048201529051600160a060020a0390921691633b562a6d916024808201926020929091908290030181600087803b1580156110ba57600080fd5b505af11580156110ce573d6000803e3d6000fd5b505050506040513d60208110156110e457600080fd5b5051806111d0575080600160a060020a031663b819723a6040518163ffffffff1660e060020a028152600401602060405180830381600087803b15801561112a57600080fd5b505af115801561113e573d6000803e3d6000fd5b505050506040513d602081101561115457600080fd5b50516040805160e060020a633b562a6d0281523360048201529051600160a060020a0390921691633b562a6d916024808201926020929091908290030181600087803b1580156111a357600080fd5b505af11580156111b7573d6000803e3d6000fd5b505050506040513d60208110156111cd57600080fd5b50515b8061124c575080600160a060020a031663beb837126040518163ffffffff1660e060020a028152600401602060405180830381600087803b15801561121457600080fd5b505af1158015611228573d6000803e3d6000fd5b505050506040513d602081101561123e57600080fd5b5051600160a060020a031633145b806112615750600054600160a060020a031633145b806112dd575080600160a060020a0316638da5cb5b6040518163ffffffff1660e060020a028152600401602060405180830381600087803b1580156112a557600080fd5b505af11580156112b9573d6000803e3d6000fd5b505050506040513d60208110156112cf57600080fd5b5051600160a060020a031633145b806112f0575033600160a060020a038316145b15156112fb57600080fd5b61130361286f565b600160a060020a031663293b0c4e6040518163ffffffff1660e060020a028152600401602060405180830381600087803b15801561134057600080fd5b505af1158015611354573d6000803e3d6000fd5b505050506040513d602081101561136a57600080fd5b505196506113778c6128ff565b95508c868c6113866002612ad6565b6040516020018085600160a060020a0316600160a060020a031681526020018060200184815260200180602001838103835286818151815260200191508051906020019080838360005b838110156113e85781810151838201526020016113d0565b50505050905090810190601f1680156114155780820380516001836020036101000a031916815260200191505b50838103825284518152845160209182019186019080838360005b83811015611448578181015183820152602001611430565b50505050905090810190601f1680156114755780820380516001836020036101000a031916815260200191505b509650505050505050604051602081830303815290604052945086600160a060020a0316637ae1cfca866040518082805190602001908083835b602083106114ce5780518252601f1990920191602091820191016114af565b51815160209384036101000a60001901801990921691161790526040805192909401829003822063ffffffff881660e060020a0283526004830152925160248083019650939450929083900301905081600087803b15801561152f57600080fd5b505af1158015611543573d6000803e3d6000fd5b505050506040513d602081101561155957600080fd5b505199508c868c61156a6003612ad6565b6040516020018085600160a060020a0316600160a060020a031681526020018060200184815260200180602001838103835286818151815260200191508051906020019080838360005b838110156115cc5781810151838201526020016115b4565b50505050905090810190601f1680156115f95780820380516001836020036101000a031916815260200191505b50838103825284518152845160209182019186019080838360005b8381101561162c578181015183820152602001611614565b50505050905090810190601f1680156116595780820380516001836020036101000a031916815260200191505b509650505050505050604051602081830303815290604052935086600160a060020a03166321f8a721856040518082805190602001908083835b602083106116b25780518252601f199092019160209182019101611693565b51815160209384036101000a60001901801990921691161790526040805192909401829003822063ffffffff881660e060020a0283526004830152925160248083019650939450929083900301905081600087803b15801561171357600080fd5b505af1158015611727573d6000803e3d6000fd5b505050506040513d602081101561173d57600080fd5b505198508c868c61174e6004612ad6565b6040516020018085600160a060020a0316600160a060020a031681526020018060200184815260200180602001838103835286818151815260200191508051906020019080838360005b838110156117b0578181015183820152602001611798565b50505050905090810190601f1680156117dd5780820380516001836020036101000a031916815260200191505b50838103825284518152845160209182019186019080838360005b838110156118105781810151838201526020016117f8565b50505050905090810190601f16801561183d5780820380516001836020036101000a031916815260200191505b509650505050505050604051602081830303815290604052925086600160a060020a031663bd02d0f5846040518082805190602001908083835b602083106118965780518252601f199092019160209182019101611877565b51815160209384036101000a60001901801990921691161790526040805192909401829003822063ffffffff881660e060020a0283526004830152925160248083019650939450929083900301905081600087803b1580156118f757600080fd5b505af115801561190b573d6000803e3d6000fd5b505050506040513d602081101561192157600080fd5b5051999d989c50989a509698505050505050505050565b61194433848484612c5e565b505050565b6000806000806119598686610459565b9050611966868683610fea565b935093509350509250925092565b600060608085600061198461286f565b905080600160a060020a03166322d2dd346040518163ffffffff1660e060020a028152600401602060405180830381600087803b1580156119c457600080fd5b505af11580156119d8573d6000803e3d6000fd5b505050506040513d60208110156119ee57600080fd5b50516040805160e060020a633b562a6d0281523360048201529051600160a060020a0390921691633b562a6d916024808201926020929091908290030181600087803b158015611a3d57600080fd5b505af1158015611a51573d6000803e3d6000fd5b505050506040513d6020811015611a6757600080fd5b505180611b53575080600160a060020a031663b819723a6040518163ffffffff1660e060020a028152600401602060405180830381600087803b158015611aad57600080fd5b505af1158015611ac1573d6000803e3d6000fd5b505050506040513d6020811015611ad757600080fd5b50516040805160e060020a633b562a6d0281523360048201529051600160a060020a0390921691633b562a6d916024808201926020929091908290030181600087803b158015611b2657600080fd5b505af1158015611b3a573d6000803e3d6000fd5b505050506040513d6020811015611b5057600080fd5b50515b80611bcf575080600160a060020a031663beb837126040518163ffffffff1660e060020a028152600401602060405180830381600087803b158015611b9757600080fd5b505af1158015611bab573d6000803e3d6000fd5b505050506040513d6020811015611bc157600080fd5b5051600160a060020a031633145b80611be45750600054600160a060020a031633145b80611c60575080600160a060020a0316638da5cb5b6040518163ffffffff1660e060020a028152600401602060405180830381600087803b158015611c2857600080fd5b505af1158015611c3c573d6000803e3d6000fd5b505050506040513d6020811015611c5257600080fd5b5051600160a060020a031633145b80611c73575033600160a060020a038316145b1515611c7e57600080fd5b611c87876128ff565b9350878487611c966003612ad6565b6040516020018085600160a060020a0316600160a060020a031681526020018060200184815260200180602001838103835286818151815260200191508051906020019080838360005b83811015611cf8578181015183820152602001611ce0565b50505050905090810190601f168015611d255780820380516001836020036101000a031916815260200191505b50838103825284518152845160209182019186019080838360005b83811015611d58578181015183820152602001611d40565b50505050905090810190601f168015611d855780820380516001836020036101000a031916815260200191505b5096505050505050506040516020818303038152906040529250611da761286f565b600160a060020a031663293b0c4e6040518163ffffffff1660e060020a028152600401602060405180830381600087803b158015611de457600080fd5b505af1158015611df8573d6000803e3d6000fd5b505050506040513d6020811015611e0e57600080fd5b50516040518451600160a060020a03909216916321f8a721918691819060208401908083835b60208310611e535780518252601f199092019160209182019101611e34565b51815160209384036101000a60001901801990921691161790526040805192909401829003822063ffffffff881660e060020a0283526004830152925160248083019650939450929083900301905081600087803b158015611eb457600080fd5b505af1158015611ec8573d6000803e3d6000fd5b505050506040513d6020811015611ede57600080fd5b505198975050505050505050565b600054600160a060020a03163314611f0357600080fd5b600160a060020a0381161515611f1857600080fd5b60008054604051600160a060020a03808516939216917f8be0079c531659141344cd1fd0a4f28419497f9722a3daafe3b4186f6b6457e091a36000805473ffffffffffffffffffffffffffffffffffffffff1916600160a060020a0392909216919091179055565b6060806000611f8f8585610459565b9050611f9c8585836106b3565b92509250509250929050565b60006060600060608060606000611fbd61286f565b905080600160a060020a03166322d2dd346040518163ffffffff1660e060020a028152600401602060405180830381600087803b158015611ffd57600080fd5b505af1158015612011573d6000803e3d6000fd5b505050506040513d602081101561202757600080fd5b50516040805160e060020a633b562a6d0281523360048201529051600160a060020a0390921691633b562a6d916024808201926020929091908290030181600087803b15801561207657600080fd5b505af115801561208a573d6000803e3d6000fd5b505050506040513d60208110156120a057600080fd5b50518061211e575080600160a060020a0316638da5cb5b6040518163ffffffff1660e060020a028152600401602060405180830381600087803b1580156120e657600080fd5b505af11580156120fa573d6000803e3d6000fd5b505050506040513d602081101561211057600080fd5b5051600160a060020a031633145b151561212957600080fd5b61213161286f565b965061213c8c6128ff565b955086600160a060020a031663293b0c4e6040518163ffffffff1660e060020a028152600401602060405180830381600087803b15801561217c57600080fd5b505af1158015612190573d6000803e3d6000fd5b505050506040513d60208110156121a657600080fd5b505194508c868c6121b76002612ad6565b6040516020018085600160a060020a0316600160a060020a031681526020018060200184815260200180602001838103835286818151815260200191508051906020019080838360005b83811015612219578181015183820152602001612201565b50505050905090810190601f1680156122465780820380516001836020036101000a031916815260200191505b50838103825284518152845160209182019186019080838360005b83811015612279578181015183820152602001612261565b50505050905090810190601f1680156122a65780820380516001836020036101000a031916815260200191505b509650505050505050604051602081830303815290604052935084600160a060020a031663abfdcced856040518082805190602001908083835b602083106122ff5780518252601f1990920191602091820191016122e0565b6001836020036101000a03801982511681845116808217855250505050505090500191505060405180910390208c6040518363ffffffff1660e060020a0281526004018083600019166000191681526020018215151515815260200192505050600060405180830381600087803b15801561237957600080fd5b505af115801561238d573d6000803e3d6000fd5b505050508c868c61239e6003612ad6565b6040516020018085600160a060020a0316600160a060020a031681526020018060200184815260200180602001838103835286818151815260200191508051906020019080838360005b838110156124005781810151838201526020016123e8565b50505050905090810190601f16801561242d5780820380516001836020036101000a031916815260200191505b50838103825284518152845160209182019186019080838360005b83811015612460578181015183820152602001612448565b50505050905090810190601f16801561248d5780820380516001836020036101000a031916815260200191505b509650505050505050604051602081830303815290604052925084600160a060020a031663ca446dd9846040518082805190602001908083835b602083106124e65780518252601f1990920191602091820191016124c7565b6001836020036101000a03801982511681845116808217855250505050505090500191505060405180910390208b6040518363ffffffff1660e060020a02815260040180836000191660001916815260200182600160a060020a0316600160a060020a0316815260200192505050600060405180830381600087803b15801561256e57600080fd5b505af1158015612582573d6000803e3d6000fd5b505050508c868c6125936004612ad6565b6040516020018085600160a060020a0316600160a060020a031681526020018060200184815260200180602001838103835286818151815260200191508051906020019080838360005b838110156125f55781810151838201526020016125dd565b50505050905090810190601f1680156126225780820380516001836020036101000a031916815260200191505b50838103825284518152845160209182019186019080838360005b8381101561265557818101518382015260200161263d565b50505050905090810190601f1680156126825780820380516001836020036101000a031916815260200191505b509650505050505050604051602081830303815290604052915084600160a060020a031663e2a4853a836040518082805190602001908083835b602083106126db5780518252601f1990920191602091820191016126bc565b5181516020939093036101000a60001901801990911692169190911790526040805191909301819003812063ffffffff871660e060020a0282526004820152602481018f9052915160448084019550600094509092839003019050818387803b15801561274757600080fd5b505af115801561275b573d6000803e3d6000fd5b5050505086600160a060020a031663beb837126040518163ffffffff1660e060020a028152600401602060405180830381600087803b15801561279d57600080fd5b505af11580156127b1573d6000803e3d6000fd5b505050506040513d60208110156127c757600080fd5b8101908080519060200190929190505050600160a060020a031663731beebf8e8e6040518363ffffffff1660e060020a0281526004018083600160a060020a0316600160a060020a0316815260200182600581111561282257fe5b60ff16815260200192505050600060405180830381600087803b15801561284857600080fd5b505af115801561285c573d6000803e3d6000fd5b5050505050505050505050505050505050565b600154604080517f127f0f070000000000000000000000000000000000000000000000000000000081529051600092600160a060020a03169163127f0f0791600480830192602092919082900301818787803b1580156128ce57600080fd5b505af11580156128e2573d6000803e3d6000fd5b505050506040513d60208110156128f857600080fd5b5051919050565b6060600082600581111561290f57fe5b141561294f575060408051808201909152600581527f656d61696c0000000000000000000000000000000000000000000000000000006020820152612ad1565b600182600581111561295d57fe5b141561299d575060408051808201909152600581527f70686f6e650000000000000000000000000000000000000000000000000000006020820152612ad1565b60028260058111156129ab57fe5b14156129eb575060408051808201909152600881527f6964656e746974790000000000000000000000000000000000000000000000006020820152612ad1565b60038260058111156129f957fe5b1415612a39575060408051808201909152600681527f64657669636500000000000000000000000000000000000000000000000000006020820152612ad1565b6004826005811115612a4757fe5b1415612a87575060408051808201909152600981527f646f63756d656e747300000000000000000000000000000000000000000000006020820152612ad1565b6005826005811115612a9557fe5b14156100ab575060408051808201909152600981527f616464726573736573000000000000000000000000000000000000000000000060208201525b919050565b60606000826004811115612ae657fe5b1415612b26575060408051808201909152600481527f64617461000000000000000000000000000000000000000000000000000000006020820152612ad1565b6001826004811115612b3457fe5b1415612b74575060408051808201909152600a81527f6f626a65637454797065000000000000000000000000000000000000000000006020820152612ad1565b6002826004811115612b8257fe5b1415612bc2575060408051808201909152600a81527f69735665726966696564000000000000000000000000000000000000000000006020820152612ad1565b6004826004811115612bd057fe5b1415612c10575060408051808201909152600a81527f76657269666965644174000000000000000000000000000000000000000000006020820152612ad1565b6003826004811115612c1e57fe5b14156100ab575060408051808201909152600a81527f76657269666965644279000000000000000000000000000000000000000000006020820152612ad1565b60606000606060006060806060612c858a602060405190810160405280600081525061323d565b158015612ca95750612ca789602060405190810160405280600081525061323d565b155b1515612cb457600080fd5b612cbd886128ff565b9650612cc98b89610459565b95506003886005811115612cd957fe5b1415612cea578515612cea57600080fd5b6040805160208101909152600081529450612d0361286f565b600160a060020a031663293b0c4e6040518163ffffffff1660e060020a028152600401602060405180830381600087803b158015612d4057600080fd5b505af1158015612d54573d6000803e3d6000fd5b505050506040513d6020811015612d6a57600080fd5b505193506000861115613202578a8787612d846000612ad6565b6040516020018085600160a060020a0316600160a060020a031681526020018060200184815260200180602001838103835286818151815260200191508051906020019080838360005b83811015612de6578181015183820152602001612dce565b50505050905090810190601f168015612e135780820380516001836020036101000a031916815260200191505b50838103825284518152845160209182019186019080838360005b83811015612e46578181015183820152602001612e2e565b50505050905090810190601f168015612e735780820380516001836020036101000a031916815260200191505b509650505050505050604051602081830303815290604052925083600160a060020a031663986e791a846040518082805190602001908083835b60208310612ecc5780518252601f199092019160209182019101612ead565b5181516020939093036101000a60001901801990911692169190911790526040805191909301819003812063ffffffff871660e060020a0282526004820152915160248084019550600094509092839003019050818387803b158015612f3157600080fd5b505af1158015612f45573d6000803e3d6000fd5b505050506040513d6000823e601f3d908101601f191682016040526020811015612f6e57600080fd5b810190808051640100000000811115612f8657600080fd5b82016020810184811115612f9957600080fd5b8151640100000000811182820187101715612fb357600080fd5b505092919050505094508a8787612fca6001612ad6565b6040516020018085600160a060020a0316600160a060020a031681526020018060200184815260200180602001838103835286818151815260200191508051906020019080838360005b8381101561302c578181015183820152602001613014565b50505050905090810190601f1680156130595780820380516001836020036101000a031916815260200191505b50838103825284518152845160209182019186019080838360005b8381101561308c578181015183820152602001613074565b50505050905090810190601f1680156130b95780820380516001836020036101000a031916815260200191505b509650505050505050604051602081830303815290604052915083600160a060020a031663986e791a836040518082805190602001908083835b602083106131125780518252601f1990920191602091820191016130f3565b5181516020939093036101000a60001901801990911692169190911790526040805191909301819003812063ffffffff871660e060020a0282526004820152915160248084019550600094509092839003019050818387803b15801561317757600080fd5b505af115801561318b573d6000803e3d6000fd5b505050506040513d6000823e601f3d908101601f1916820160405260208110156131b457600080fd5b8101908080516401000000008111156131cc57600080fd5b820160208101848111156131df57600080fd5b81516401000000008111828201871017156131f957600080fd5b50909450505050505b61320c858b61323d565b158061321f575061321d818a61323d565b155b15613230576132308b8b8b8b6132ff565b5050505050505050505050565b6000816040518082805190602001908083835b6020831061326f5780518252601f199092019160209182019101613250565b51815160209384036101000a6000190180199092169116179052604051919093018190038120885190955088945090928392508401908083835b602083106132c85780518252601f1990920191602091820191016132a9565b5181516020939093036101000a60001901801990911692169190911790526040519201829003909120939093149695505050505050565b60006060600060608060606133148a88610459565b6001019550613322876128ff565b945061332c61286f565b600160a060020a031663293b0c4e6040518163ffffffff1660e060020a028152600401602060405180830381600087803b15801561336957600080fd5b505af115801561337d573d6000803e3d6000fd5b505050506040513d602081101561339357600080fd5b505193508985876133a46000612ad6565b6040516020018085600160a060020a0316600160a060020a031681526020018060200184815260200180602001838103835286818151815260200191508051906020019080838360005b838110156134065781810151838201526020016133ee565b50505050905090810190601f1680156134335780820380516001836020036101000a031916815260200191505b50838103825284518152845160209182019186019080838360005b8381101561346657818101518382015260200161344e565b50505050905090810190601f1680156134935780820380516001836020036101000a031916815260200191505b509650505050505050604051602081830303815290604052925083600160a060020a0316636e899550846040518082805190602001908083835b602083106134ec5780518252601f1990920191602091820191016134cd565b6001836020036101000a03801982511681845116808217855250505050505090500191505060405180910390208b6040518363ffffffff1660e060020a02815260040180836000191660001916815260200180602001828103825283818151815260200191508051906020019080838360005b8381101561357757818101518382015260200161355f565b50505050905090810190601f1680156135a45780820380516001836020036101000a031916815260200191505b509350505050600060405180830381600087803b1580156135c457600080fd5b505af11580156135d8573d6000803e3d6000fd5b505050508985876135e96001612ad6565b6040516020018085600160a060020a0316600160a060020a031681526020018060200184815260200180602001838103835286818151815260200191508051906020019080838360005b8381101561364b578181015183820152602001613633565b50505050905090810190601f1680156136785780820380516001836020036101000a031916815260200191505b50838103825284518152845160209182019186019080838360005b838110156136ab578181015183820152602001613693565b50505050905090810190601f1680156136d85780820380516001836020036101000a031916815260200191505b509650505050505050604051602081830303815290604052915083600160a060020a0316636e899550836040518082805190602001908083835b602083106137315780518252601f199092019160209182019101613712565b6001836020036101000a03801982511681845116808217855250505050505090500191505060405180910390208a6040518363ffffffff1660e060020a02815260040180836000191660001916815260200180602001828103825283818151815260200191508051906020019080838360005b838110156137bc5781810151838201526020016137a4565b50505050905090810190601f1680156137e95780820380516001836020036101000a031916815260200191505b509350505050600060405180830381600087803b15801561380957600080fd5b505af115801561381d573d6000803e3d6000fd5b5050505089876040805190810160405280600681526020017f6c656e67746800000000000000000000000000000000000000000000000000008152506040516020018084600160a060020a0316600160a060020a0316815260200183600581111561388457fe5b60ff16815260200180602001828103825283818151815260200191508051906020019080838360005b838110156138c55781810151838201526020016138ad565b50505050905090810190601f1680156138f25780820380516001836020036101000a031916815260200191505b50945050505050604051602081830303815290604052905083600160a060020a031663e2a4853a826040518082805190602001908083835b602083106139495780518252601f19909201916020918201910161392a565b5181516020939093036101000a60001901801990911692169190911790526040805191909301819003812063ffffffff871660e060020a0282526004820152602481018d9052915160448084019550600094509092839003019050818387803b1580156139b557600080fd5b505af11580156139c9573d6000803e3d6000fd5b50505050505050505050505050505600a165627a7a72305820699c453232d4331921512289d4f373780d252dff1bdbf1c7bcfd16bbd0ae1cff0029",
  "source": "pragma solidity ^0.4.23;\r\n\r\n\r\nimport \"./WithKimlicContext.sol\";\r\nimport \"./openzeppelin-solidity/Ownable.sol\";\r\nimport \"./KimlicContractsContext.sol\";\r\nimport \"./AccountStorage.sol\";\r\n\r\ncontract AccountStorageAdapter is Ownable, WithKimlicContext {\r\n\r\n    /// public attributes ///\r\n\r\n    /// private attributes ///\r\n    string constant lengthCaption = \"length\";\r\n\r\n    /// Enums ///\r\n\r\n    enum AccountFieldName { Email, Phone, Identity, Device, Documents, Addresses }\r\n\r\n    enum MetaFieldName { Data, ObjectType, IsVerified, VerifiedBy, VerifiedAt }\r\n\r\n    /// constructors ///\r\n\r\n    constructor (address contextstorage) public WithKimlicContext(contextstorage) {\r\n    }\r\n\r\n    /// public methods ///\r\n\r\n    function setAccountFieldMainData(string data, string objectType, AccountFieldName accountFieldName) public {\r\n        updateAccountField(msg.sender, data, objectType, accountFieldName);\r\n    }\r\n\r\n    function getLastAccountDataVerifiedBy(address accountAddress, AccountFieldName accountFieldName) public view returns(address verifiedBy) {\r\n        uint index = getFieldHistoryLength(accountAddress, accountFieldName);\r\n        return getAccountDataVerifiedBy(accountAddress, accountFieldName, index);\r\n    }\r\n\r\n    function getAccountDataVerifiedBy(address accountAddress, AccountFieldName accountFieldName, uint index)\r\n            public view checkReadingDataRestrictions(accountAddress) returns(address verifiedBy) {\r\n        string memory fieldName = convertAccountFieldNameToString(accountFieldName);\r\n        bytes memory verifiedByKey = abi.encode(accountAddress, fieldName, index, convertMetaFieldNameToString(MetaFieldName.VerifiedBy));\r\n        verifiedBy = getContext().getAccountStorage().getAddress(keccak256(verifiedByKey));\r\n    }\r\n\r\n    function getAccountFieldLastMainData(address accountAddress, AccountFieldName accountFieldName)\r\n        public view returns(string data, string objectType) {\r\n\r\n        uint index = getFieldHistoryLength(accountAddress, accountFieldName);\r\n        return getAccountFieldMainData(accountAddress, accountFieldName, index);\r\n    }\r\n\r\n    function getAccountFieldMainData(address accountAddress, AccountFieldName accountFieldName, uint index)\r\n        public\r\n        view\r\n        checkReadingDataRestrictions(accountAddress)\r\n        returns(string data, string objectType) {\r\n\r\n        AccountStorage accountStorage = getContext().getAccountStorage();\r\n\r\n        string memory fieldName = convertAccountFieldNameToString(accountFieldName);\r\n\r\n        bytes memory dataKey = abi.encode(accountAddress, fieldName, index, convertMetaFieldNameToString(MetaFieldName.Data));\r\n        data = accountStorage.getString(keccak256(dataKey));\r\n        \r\n        bytes memory objectTypeKey = abi.encode(accountAddress, fieldName, index, convertMetaFieldNameToString(MetaFieldName.ObjectType));\r\n        objectType = getContext().getAccountStorage().getString(keccak256(objectTypeKey));\r\n    }\r\n\r\n    function getAccountFieldLastVerificationData(address accountAddress, AccountFieldName accountFieldName)\r\n        public view returns(bool isVerified, address verifiedBy, uint256 verifiedAt) {\r\n\r\n        uint index = getFieldHistoryLength(accountAddress, accountFieldName);\r\n        return getAccountFieldVerificationData(accountAddress, accountFieldName, index);\r\n    }\r\n\r\n    function getAccountFieldVerificationData(address accountAddress, AccountFieldName accountFieldName, uint index)\r\n        public\r\n        view\r\n        checkReadingDataRestrictions(accountAddress)\r\n        returns(bool isVerified, address verifiedBy, uint256 verifiedAt) {\r\n\r\n        AccountStorage accountStorage = getContext().getAccountStorage();\r\n\r\n        string memory fieldName = convertAccountFieldNameToString(accountFieldName);\r\n\r\n        bytes memory isVerifiedKey = abi.encode(accountAddress, fieldName, index, convertMetaFieldNameToString(MetaFieldName.IsVerified));\r\n        isVerified = accountStorage.getBool(keccak256(isVerifiedKey));\r\n\r\n        bytes memory verifiedByKey = abi.encode(accountAddress, fieldName, index, convertMetaFieldNameToString(MetaFieldName.VerifiedBy));\r\n        verifiedBy = accountStorage.getAddress(keccak256(verifiedByKey));\r\n\r\n        bytes memory verifiedAtKey = abi.encode(accountAddress, fieldName, index, convertMetaFieldNameToString(MetaFieldName.VerifiedAt));\r\n        verifiedAt = accountStorage.getUint(keccak256(verifiedAtKey));\r\n    }\r\n\r\n    function setAccountFieldVerificationData(\r\n        address accountAddress, AccountFieldName accountFieldName,\r\n        bool isVerified, address verifiedBy, uint verifiedAt) public {\r\n\r\n        uint index = getFieldHistoryLength(accountAddress, accountFieldName);\r\n        setAccountFieldVerificationData(accountAddress, accountFieldName, index, isVerified, verifiedBy, verifiedAt);\r\n    }\r\n\r\n    function setAccountFieldVerificationData(\r\n        address accountAddress, AccountFieldName accountFieldName, uint index,\r\n        bool isVerified, address verifiedBy, uint verifiedAt) public verificationContractOrOwnerOnly() {\r\n\r\n        KimlicContractsContext context = getContext();\r\n\r\n        string memory fieldName = convertAccountFieldNameToString(accountFieldName);\r\n        \r\n        AccountStorage accountStorage = context.getAccountStorage();\r\n\r\n        bytes memory isVerifiedKey = abi.encode(accountAddress, fieldName, index, convertMetaFieldNameToString(MetaFieldName.IsVerified));\r\n        accountStorage.setBool(keccak256(isVerifiedKey), isVerified);\r\n\r\n        bytes memory verifiedByKey = abi.encode(accountAddress, fieldName, index, convertMetaFieldNameToString(MetaFieldName.VerifiedBy));\r\n        accountStorage.setAddress(keccak256(verifiedByKey), verifiedBy);\r\n\r\n        bytes memory verifiedAtKey = abi.encode(accountAddress, fieldName, index, convertMetaFieldNameToString(MetaFieldName.VerifiedAt));\r\n        accountStorage.setUint(keccak256(verifiedAtKey), verifiedAt);\r\n\r\n        context.getRewardingContract().checkMilestones(accountAddress, accountFieldName);\r\n    }\r\n\r\n    function getFieldHistoryLength(address accountAddress, AccountFieldName accountFieldName) public view returns(uint length){\r\n        bytes memory fieldHistoryLengthKey = abi.encode(accountAddress, accountFieldName, lengthCaption);\r\n        length = getContext().getAccountStorage().getUint(keccak256(fieldHistoryLengthKey));\r\n    }\r\n\r\n    /// private methods ///\r\n\r\n    function updateAccountField(address accountAddress, string data, string objectType, AccountFieldName accountFieldName) private {\r\n        \r\n        require(!isEqualStrings(data, \"\") && !isEqualStrings(objectType, \"\"));\r\n\r\n        string memory fieldName = convertAccountFieldNameToString(accountFieldName);\r\n        uint index = getFieldHistoryLength(accountAddress, accountFieldName);\r\n\r\n        if (accountFieldName == AccountFieldName.Device) {\r\n            require(index == 0);\r\n        }\r\n        string memory storedData = \"\";\r\n        AccountStorage accountStorage = getContext().getAccountStorage();\r\n\r\n        if (index > 0) {\r\n            bytes memory dataKey = abi.encode(accountAddress, fieldName, index, convertMetaFieldNameToString(MetaFieldName.Data));\r\n            storedData = accountStorage.getString(keccak256(dataKey));\r\n\r\n            bytes memory objectTypeKey = abi.encode(accountAddress, fieldName, index, convertMetaFieldNameToString(MetaFieldName.ObjectType));\r\n            string memory storedObjectType = accountStorage.getString(keccak256(objectTypeKey));\r\n        }\r\n\r\n        if (!isEqualStrings(storedData, data) || !isEqualStrings(storedObjectType, objectType)) {\r\n            addNewFieldItem(accountAddress, data, objectType, accountFieldName);\r\n        }\r\n    }\r\n\r\n\r\n    function addNewFieldItem(address accountAddress, string data, string objectType, AccountFieldName accountFieldName) private {\r\n\r\n        uint index = getFieldHistoryLength(accountAddress, accountFieldName) + 1;\r\n\r\n        string memory fieldName = convertAccountFieldNameToString(accountFieldName);\r\n        \r\n        AccountStorage accountStorage = getContext().getAccountStorage();\r\n\r\n        bytes memory dataKey = abi.encode(accountAddress, fieldName, index, convertMetaFieldNameToString(MetaFieldName.Data));\r\n        accountStorage.setString(keccak256(dataKey), data);\r\n\r\n        bytes memory objectTypeKey = abi.encode(accountAddress, fieldName, index, convertMetaFieldNameToString(MetaFieldName.ObjectType));\r\n        accountStorage.setString(keccak256(objectTypeKey), objectType);\r\n        \r\n        bytes memory fieldHistoryLengthKey = abi.encode(accountAddress, accountFieldName, lengthCaption);\r\n        accountStorage.setUint(keccak256(fieldHistoryLengthKey), index);\r\n    }\r\n\r\n    function convertAccountFieldNameToString(AccountFieldName accountFieldName) private pure returns(string memory enumCaption) {\r\n        if (accountFieldName == AccountFieldName.Email) {\r\n            enumCaption = \"email\";\r\n        }\r\n        else if (accountFieldName == AccountFieldName.Phone) {\r\n            enumCaption = \"phone\";\r\n        }\r\n        else if (accountFieldName == AccountFieldName.Identity) {\r\n            enumCaption = \"identity\";\r\n        }\r\n        else if (accountFieldName == AccountFieldName.Device) {\r\n            enumCaption = \"device\";\r\n        }\r\n        else if (accountFieldName == AccountFieldName.Documents) {\r\n            enumCaption = \"documents\";\r\n        }\r\n        else if (accountFieldName == AccountFieldName.Addresses) {\r\n            enumCaption = \"addresses\";\r\n        }\r\n        else {\r\n            require(false);\r\n        }\r\n    }\r\n\r\n    function convertMetaFieldNameToString(MetaFieldName metaFieldName) private pure returns(string memory enumCaption) {\r\n        if (metaFieldName == MetaFieldName.Data) {\r\n            enumCaption = \"data\";\r\n        }\r\n        else if (metaFieldName == MetaFieldName.ObjectType) {\r\n            enumCaption = \"objectType\";\r\n        }\r\n        else if (metaFieldName == MetaFieldName.IsVerified) {\r\n            enumCaption = \"isVerified\";\r\n        }\r\n        else if (metaFieldName == MetaFieldName.VerifiedAt) {\r\n            enumCaption = \"verifiedAt\";\r\n        }\r\n        else if (metaFieldName == MetaFieldName.VerifiedBy) {\r\n            enumCaption = \"verifiedBy\";\r\n        }\r\n        else {\r\n            require(false);\r\n        }\r\n    }\r\n\r\n    function isEqualStrings(string leftValue, string rightValue) private pure returns(bool isEqual){\r\n        isEqual = keccak256(bytes(leftValue)) == keccak256(bytes(rightValue));\r\n    }\r\n\r\n    modifier verificationContractOrOwnerOnly() {\r\n        KimlicContractsContext context = getContext();\r\n        require(\r\n            context.getVerificationContractFactory().createdContracts(msg.sender) ||\r\n            msg.sender == context.owner());\r\n        _;\r\n    }\r\n\r\n    modifier checkReadingDataRestrictions(address account) {\r\n        KimlicContractsContext context = getContext();\r\n        require(\r\n            context.getVerificationContractFactory().createdContracts(msg.sender) ||\r\n            context.getProvisioningContractFactory().createdContracts(msg.sender) ||\r\n            msg.sender == address(context.getRewardingContract()) ||\r\n            msg.sender == owner ||\r\n            msg.sender == context.owner() ||\r\n            msg.sender == account);\r\n        _;\r\n    }\r\n}\r\n",
  "sourcePath": "C:\\work\\quorum.smart-contracts\\contracts\\AccountStorageAdapter.sol",
  "compiler": {
    "name": "solc",
    "version": "0.4.24+commit.e67f0147.Emscripten.clang"
  },
  "schemaVersion": "2.0.1",
  "updatedAt": "2018-06-26T13:41:58.512Z"
}