{
  "contractName": "AttestationPartyStorage",
  "abi": [
    {
      "constant": false,
      "inputs": [
        {
          "name": "_key",
          "type": "bytes32"
        }
      ],
      "name": "deleteBytes32",
      "outputs": [],
      "payable": false,
      "stateMutability": "nonpayable",
      "type": "function"
    },
    {
      "constant": false,
      "inputs": [
        {
          "name": "_key",
          "type": "bytes32"
        }
      ],
      "name": "deleteAddress",
      "outputs": [],
      "payable": false,
      "stateMutability": "nonpayable",
      "type": "function"
    },
    {
      "constant": true,
      "inputs": [
        {
          "name": "_key",
          "type": "bytes32"
        }
      ],
      "name": "getAddress",
      "outputs": [
        {
          "name": "",
          "type": "address"
        }
      ],
      "payable": false,
      "stateMutability": "view",
      "type": "function"
    },
    {
      "constant": false,
      "inputs": [
        {
          "name": "_key",
          "type": "bytes32"
        }
      ],
      "name": "deleteBool",
      "outputs": [],
      "payable": false,
      "stateMutability": "nonpayable",
      "type": "function"
    },
    {
      "constant": false,
      "inputs": [
        {
          "name": "_key",
          "type": "bytes32"
        },
        {
          "name": "_value",
          "type": "int256"
        }
      ],
      "name": "setInt",
      "outputs": [],
      "payable": false,
      "stateMutability": "nonpayable",
      "type": "function"
    },
    {
      "constant": false,
      "inputs": [
        {
          "name": "_key",
          "type": "bytes32"
        },
        {
          "name": "_value",
          "type": "bytes32"
        }
      ],
      "name": "setBytes32",
      "outputs": [],
      "payable": false,
      "stateMutability": "nonpayable",
      "type": "function"
    },
    {
      "constant": false,
      "inputs": [
        {
          "name": "_key",
          "type": "bytes32"
        },
        {
          "name": "_value",
          "type": "string"
        }
      ],
      "name": "setString",
      "outputs": [],
      "payable": false,
      "stateMutability": "nonpayable",
      "type": "function"
    },
    {
      "constant": true,
      "inputs": [
        {
          "name": "_key",
          "type": "bytes32"
        }
      ],
      "name": "getBool",
      "outputs": [
        {
          "name": "",
          "type": "bool"
        }
      ],
      "payable": false,
      "stateMutability": "view",
      "type": "function"
    },
    {
      "constant": false,
      "inputs": [
        {
          "name": "_key",
          "type": "bytes32"
        }
      ],
      "name": "deleteInt",
      "outputs": [],
      "payable": false,
      "stateMutability": "nonpayable",
      "type": "function"
    },
    {
      "constant": true,
      "inputs": [
        {
          "name": "_key",
          "type": "bytes32"
        }
      ],
      "name": "getString",
      "outputs": [
        {
          "name": "",
          "type": "string"
        }
      ],
      "payable": false,
      "stateMutability": "view",
      "type": "function"
    },
    {
      "constant": true,
      "inputs": [
        {
          "name": "_key",
          "type": "bytes32"
        }
      ],
      "name": "getBytes32",
      "outputs": [
        {
          "name": "",
          "type": "bytes32"
        }
      ],
      "payable": false,
      "stateMutability": "view",
      "type": "function"
    },
    {
      "constant": false,
      "inputs": [
        {
          "name": "_key",
          "type": "bytes32"
        },
        {
          "name": "_value",
          "type": "bool"
        }
      ],
      "name": "setBool",
      "outputs": [],
      "payable": false,
      "stateMutability": "nonpayable",
      "type": "function"
    },
    {
      "constant": true,
      "inputs": [
        {
          "name": "_key",
          "type": "bytes32"
        }
      ],
      "name": "getUint",
      "outputs": [
        {
          "name": "",
          "type": "uint256"
        }
      ],
      "payable": false,
      "stateMutability": "view",
      "type": "function"
    },
    {
      "constant": false,
      "inputs": [
        {
          "name": "_key",
          "type": "bytes32"
        },
        {
          "name": "_value",
          "type": "address"
        }
      ],
      "name": "setAddress",
      "outputs": [],
      "payable": false,
      "stateMutability": "nonpayable",
      "type": "function"
    },
    {
      "constant": true,
      "inputs": [
        {
          "name": "_key",
          "type": "bytes32"
        }
      ],
      "name": "getInt",
      "outputs": [
        {
          "name": "",
          "type": "int256"
        }
      ],
      "payable": false,
      "stateMutability": "view",
      "type": "function"
    },
    {
      "constant": false,
      "inputs": [
        {
          "name": "_key",
          "type": "bytes32"
        },
        {
          "name": "_value",
          "type": "uint256"
        }
      ],
      "name": "setUint",
      "outputs": [],
      "payable": false,
      "stateMutability": "nonpayable",
      "type": "function"
    },
    {
      "constant": false,
      "inputs": [
        {
          "name": "_key",
          "type": "bytes32"
        }
      ],
      "name": "deleteUint",
      "outputs": [],
      "payable": false,
      "stateMutability": "nonpayable",
      "type": "function"
    },
    {
      "constant": false,
      "inputs": [
        {
          "name": "_key",
          "type": "bytes32"
        }
      ],
      "name": "deleteString",
      "outputs": [],
      "payable": false,
      "stateMutability": "nonpayable",
      "type": "function"
    },
    {
      "inputs": [
        {
          "name": "contextStorage",
          "type": "address"
        }
      ],
      "payable": false,
      "stateMutability": "nonpayable",
      "type": "constructor"
    }
  ],
  "bytecode": "0x608060405234801561001057600080fd5b50604051602080611a59833981016040525160068054600160a060020a031916600160a060020a03909216919091179055611a09806100506000396000f3006080604052600436106100e25763ffffffff60e060020a6000350416630b9adc5781146100e75780630e14a3761461010157806321f8a721146101195780632c62ff2d1461014d5780633e49bed0146101655780634e91db08146101805780636e8995501461019b5780637ae1cfca146101bf5780638c160095146101eb578063986e791a14610203578063a6ed563e14610290578063abfdcced146102ba578063bd02d0f5146102d7578063ca446dd9146102ef578063dc97d96214610313578063e2a4853a1461032b578063e2b202bf14610346578063f6bb3cc41461035e575b600080fd5b3480156100f357600080fd5b506100ff600435610376565b005b34801561010d57600080fd5b506100ff600435610490565b34801561012557600080fd5b506101316004356105c4565b60408051600160a060020a039092168252519081900360200190f35b34801561015957600080fd5b506100ff6004356106ea565b34801561017157600080fd5b506100ff60043560243561080b565b34801561018c57600080fd5b506100ff600435602435610926565b3480156101a757600080fd5b506100ff600480359060248035908101910135610a41565b3480156101cb57600080fd5b506101d7600435610b69565b604080519115158252519081900360200190f35b3480156101f757600080fd5b506100ff600435610c89565b34801561020f57600080fd5b5061021b600435610da3565b6040805160208082528351818301528351919283929083019185019080838360005b8381101561025557818101518382015260200161023d565b50505050905090810190601f1680156102825780820380516001836020036101000a031916815260200191505b509250505060405180910390f35b34801561029c57600080fd5b506102a8600435610f4f565b60408051918252519081900360200190f35b3480156102c657600080fd5b506100ff600435602435151561106c565b3480156102e357600080fd5b506102a8600435611195565b3480156102fb57600080fd5b506100ff600435600160a060020a03602435166112b2565b34801561031f57600080fd5b506102a86004356113f6565b34801561033757600080fd5b506100ff600435602435611513565b34801561035257600080fd5b506100ff60043561162e565b34801561036a57600080fd5b506100ff600435611748565b600061038061186b565b905080600160a060020a0316631940d3996040518163ffffffff1660e060020a028152600401602060405180830381600087803b1580156103c057600080fd5b505af11580156103d4573d6000803e3d6000fd5b505050506040513d60208110156103ea57600080fd5b5051600160a060020a0316331480610473575080600160a060020a0316638da5cb5b6040518163ffffffff1660e060020a028152600401602060405180830381600087803b15801561043b57600080fd5b505af115801561044f573d6000803e3d6000fd5b505050506040513d602081101561046557600080fd5b5051600160a060020a031633145b151561047e57600080fd5b50600090815260036020526040812055565b600061049a61186b565b905080600160a060020a0316631940d3996040518163ffffffff1660e060020a028152600401602060405180830381600087803b1580156104da57600080fd5b505af11580156104ee573d6000803e3d6000fd5b505050506040513d602081101561050457600080fd5b5051600160a060020a031633148061058d575080600160a060020a0316638da5cb5b6040518163ffffffff1660e060020a028152600401602060405180830381600087803b15801561055557600080fd5b505af1158015610569573d6000803e3d6000fd5b505050506040513d602081101561057f57600080fd5b5051600160a060020a031633145b151561059857600080fd5b506000908152600260205260409020805473ffffffffffffffffffffffffffffffffffffffff19169055565b6000806105cf61186b565b905080600160a060020a0316631940d3996040518163ffffffff1660e060020a028152600401602060405180830381600087803b15801561060f57600080fd5b505af1158015610623573d6000803e3d6000fd5b505050506040513d602081101561063957600080fd5b5051600160a060020a03163314806106c2575080600160a060020a0316638da5cb5b6040518163ffffffff1660e060020a028152600401602060405180830381600087803b15801561068a57600080fd5b505af115801561069e573d6000803e3d6000fd5b505050506040513d60208110156106b457600080fd5b5051600160a060020a031633145b15156106cd57600080fd5b5050600090815260026020526040902054600160a060020a031690565b60006106f461186b565b905080600160a060020a0316631940d3996040518163ffffffff1660e060020a028152600401602060405180830381600087803b15801561073457600080fd5b505af1158015610748573d6000803e3d6000fd5b505050506040513d602081101561075e57600080fd5b5051600160a060020a03163314806107e7575080600160a060020a0316638da5cb5b6040518163ffffffff1660e060020a028152600401602060405180830381600087803b1580156107af57600080fd5b505af11580156107c3573d6000803e3d6000fd5b505050506040513d60208110156107d957600080fd5b5051600160a060020a031633145b15156107f257600080fd5b506000908152600460205260409020805460ff19169055565b600061081561186b565b905080600160a060020a0316631940d3996040518163ffffffff1660e060020a028152600401602060405180830381600087803b15801561085557600080fd5b505af1158015610869573d6000803e3d6000fd5b505050506040513d602081101561087f57600080fd5b5051600160a060020a0316331480610908575080600160a060020a0316638da5cb5b6040518163ffffffff1660e060020a028152600401602060405180830381600087803b1580156108d057600080fd5b505af11580156108e4573d6000803e3d6000fd5b505050506040513d60208110156108fa57600080fd5b5051600160a060020a031633145b151561091357600080fd5b5060009182526005602052604090912055565b600061093061186b565b905080600160a060020a0316631940d3996040518163ffffffff1660e060020a028152600401602060405180830381600087803b15801561097057600080fd5b505af1158015610984573d6000803e3d6000fd5b505050506040513d602081101561099a57600080fd5b5051600160a060020a0316331480610a23575080600160a060020a0316638da5cb5b6040518163ffffffff1660e060020a028152600401602060405180830381600087803b1580156109eb57600080fd5b505af11580156109ff573d6000803e3d6000fd5b505050506040513d6020811015610a1557600080fd5b5051600160a060020a031633145b1515610a2e57600080fd5b5060009182526003602052604090912055565b6000610a4b61186b565b905080600160a060020a0316631940d3996040518163ffffffff1660e060020a028152600401602060405180830381600087803b158015610a8b57600080fd5b505af1158015610a9f573d6000803e3d6000fd5b505050506040513d6020811015610ab557600080fd5b5051600160a060020a0316331480610b3e575080600160a060020a0316638da5cb5b6040518163ffffffff1660e060020a028152600401602060405180830381600087803b158015610b0657600080fd5b505af1158015610b1a573d6000803e3d6000fd5b505050506040513d6020811015610b3057600080fd5b5051600160a060020a031633145b1515610b4957600080fd5b6000848152600160205260409020610b629084846118fb565b5050505050565b600080610b7461186b565b905080600160a060020a0316631940d3996040518163ffffffff1660e060020a028152600401602060405180830381600087803b158015610bb457600080fd5b505af1158015610bc8573d6000803e3d6000fd5b505050506040513d6020811015610bde57600080fd5b5051600160a060020a0316331480610c67575080600160a060020a0316638da5cb5b6040518163ffffffff1660e060020a028152600401602060405180830381600087803b158015610c2f57600080fd5b505af1158015610c43573d6000803e3d6000fd5b505050506040513d6020811015610c5957600080fd5b5051600160a060020a031633145b1515610c7257600080fd5b505060009081526004602052604090205460ff1690565b6000610c9361186b565b905080600160a060020a0316631940d3996040518163ffffffff1660e060020a028152600401602060405180830381600087803b158015610cd357600080fd5b505af1158015610ce7573d6000803e3d6000fd5b505050506040513d6020811015610cfd57600080fd5b5051600160a060020a0316331480610d86575080600160a060020a0316638da5cb5b6040518163ffffffff1660e060020a028152600401602060405180830381600087803b158015610d4e57600080fd5b505af1158015610d62573d6000803e3d6000fd5b505050506040513d6020811015610d7857600080fd5b5051600160a060020a031633145b1515610d9157600080fd5b50600090815260056020526040812055565b60606000610daf61186b565b905080600160a060020a0316631940d3996040518163ffffffff1660e060020a028152600401602060405180830381600087803b158015610def57600080fd5b505af1158015610e03573d6000803e3d6000fd5b505050506040513d6020811015610e1957600080fd5b5051600160a060020a0316331480610ea2575080600160a060020a0316638da5cb5b6040518163ffffffff1660e060020a028152600401602060405180830381600087803b158015610e6a57600080fd5b505af1158015610e7e573d6000803e3d6000fd5b505050506040513d6020811015610e9457600080fd5b5051600160a060020a031633145b1515610ead57600080fd5b60008381526001602081815260409283902080548451600260001995831615610100029590950190911693909304601f8101839004830284018301909452838352919290830182828015610f425780601f10610f1757610100808354040283529160200191610f42565b820191906000526020600020905b815481529060010190602001808311610f2557829003601f168201915b5050505050915050919050565b600080610f5a61186b565b905080600160a060020a0316631940d3996040518163ffffffff1660e060020a028152600401602060405180830381600087803b158015610f9a57600080fd5b505af1158015610fae573d6000803e3d6000fd5b505050506040513d6020811015610fc457600080fd5b5051600160a060020a031633148061104d575080600160a060020a0316638da5cb5b6040518163ffffffff1660e060020a028152600401602060405180830381600087803b15801561101557600080fd5b505af1158015611029573d6000803e3d6000fd5b505050506040513d602081101561103f57600080fd5b5051600160a060020a031633145b151561105857600080fd5b505060009081526003602052604090205490565b600061107661186b565b905080600160a060020a0316631940d3996040518163ffffffff1660e060020a028152600401602060405180830381600087803b1580156110b657600080fd5b505af11580156110ca573d6000803e3d6000fd5b505050506040513d60208110156110e057600080fd5b5051600160a060020a0316331480611169575080600160a060020a0316638da5cb5b6040518163ffffffff1660e060020a028152600401602060405180830381600087803b15801561113157600080fd5b505af1158015611145573d6000803e3d6000fd5b505050506040513d602081101561115b57600080fd5b5051600160a060020a031633145b151561117457600080fd5b50600091825260046020526040909120805460ff1916911515919091179055565b6000806111a061186b565b905080600160a060020a0316631940d3996040518163ffffffff1660e060020a028152600401602060405180830381600087803b1580156111e057600080fd5b505af11580156111f4573d6000803e3d6000fd5b505050506040513d602081101561120a57600080fd5b5051600160a060020a0316331480611293575080600160a060020a0316638da5cb5b6040518163ffffffff1660e060020a028152600401602060405180830381600087803b15801561125b57600080fd5b505af115801561126f573d6000803e3d6000fd5b505050506040513d602081101561128557600080fd5b5051600160a060020a031633145b151561129e57600080fd5b505060009081526020819052604090205490565b60006112bc61186b565b905080600160a060020a0316631940d3996040518163ffffffff1660e060020a028152600401602060405180830381600087803b1580156112fc57600080fd5b505af1158015611310573d6000803e3d6000fd5b505050506040513d602081101561132657600080fd5b5051600160a060020a03163314806113af575080600160a060020a0316638da5cb5b6040518163ffffffff1660e060020a028152600401602060405180830381600087803b15801561137757600080fd5b505af115801561138b573d6000803e3d6000fd5b505050506040513d60208110156113a157600080fd5b5051600160a060020a031633145b15156113ba57600080fd5b50600091825260026020526040909120805473ffffffffffffffffffffffffffffffffffffffff1916600160a060020a03909216919091179055565b60008061140161186b565b905080600160a060020a0316631940d3996040518163ffffffff1660e060020a028152600401602060405180830381600087803b15801561144157600080fd5b505af1158015611455573d6000803e3d6000fd5b505050506040513d602081101561146b57600080fd5b5051600160a060020a03163314806114f4575080600160a060020a0316638da5cb5b6040518163ffffffff1660e060020a028152600401602060405180830381600087803b1580156114bc57600080fd5b505af11580156114d0573d6000803e3d6000fd5b505050506040513d60208110156114e657600080fd5b5051600160a060020a031633145b15156114ff57600080fd5b505060009081526005602052604090205490565b600061151d61186b565b905080600160a060020a0316631940d3996040518163ffffffff1660e060020a028152600401602060405180830381600087803b15801561155d57600080fd5b505af1158015611571573d6000803e3d6000fd5b505050506040513d602081101561158757600080fd5b5051600160a060020a0316331480611610575080600160a060020a0316638da5cb5b6040518163ffffffff1660e060020a028152600401602060405180830381600087803b1580156115d857600080fd5b505af11580156115ec573d6000803e3d6000fd5b505050506040513d602081101561160257600080fd5b5051600160a060020a031633145b151561161b57600080fd5b5060009182526020829052604090912055565b600061163861186b565b905080600160a060020a0316631940d3996040518163ffffffff1660e060020a028152600401602060405180830381600087803b15801561167857600080fd5b505af115801561168c573d6000803e3d6000fd5b505050506040513d60208110156116a257600080fd5b5051600160a060020a031633148061172b575080600160a060020a0316638da5cb5b6040518163ffffffff1660e060020a028152600401602060405180830381600087803b1580156116f357600080fd5b505af1158015611707573d6000803e3d6000fd5b505050506040513d602081101561171d57600080fd5b5051600160a060020a031633145b151561173657600080fd5b50600090815260208190526040812055565b600061175261186b565b905080600160a060020a0316631940d3996040518163ffffffff1660e060020a028152600401602060405180830381600087803b15801561179257600080fd5b505af11580156117a6573d6000803e3d6000fd5b505050506040513d60208110156117bc57600080fd5b5051600160a060020a0316331480611845575080600160a060020a0316638da5cb5b6040518163ffffffff1660e060020a028152600401602060405180830381600087803b15801561180d57600080fd5b505af1158015611821573d6000803e3d6000fd5b505050506040513d602081101561183757600080fd5b5051600160a060020a031633145b151561185057600080fd5b600082815260016020526040812061186791611979565b5050565b600654604080517f127f0f070000000000000000000000000000000000000000000000000000000081529051600092600160a060020a03169163127f0f0791600480830192602092919082900301818787803b1580156118ca57600080fd5b505af11580156118de573d6000803e3d6000fd5b505050506040513d60208110156118f457600080fd5b5051919050565b828054600181600116156101000203166002900490600052602060002090601f016020900481019282601f1061193c5782800160ff19823516178555611969565b82800160010185558215611969579182015b8281111561196957823582559160200191906001019061194e565b506119759291506119c0565b5090565b50805460018160011615610100020316600290046000825580601f1061199f57506119bd565b601f0160209004906000526020600020908101906119bd91906119c0565b50565b6119da91905b8082111561197557600081556001016119c6565b905600a165627a7a72305820f5ea84d45b36c12f95751216798bdacb8fb02b288674c051377a930b895a7fcc0029",
  "source": "pragma solidity ^0.4.23;\r\n\r\n\r\nimport \"./KimlicContractsContext.sol\";\r\nimport \"./BaseStorage.sol\";\r\nimport \"./WithKimlicContext.sol\";\r\n\r\ncontract AttestationPartyStorage is BaseStorage, WithKimlicContext {\r\n    \r\n    /// constructors ///\r\n    constructor (address contextStorage) public WithKimlicContext(contextStorage) {\r\n    }\r\n\r\n    /// modifiers ///\r\n    modifier accessRestriction() {\r\n        KimlicContractsContext context = getContext();\r\n        require(msg.sender == address(context.getAttestationPartyStorageAdapter()) || msg.sender == context.owner());\r\n        _;\r\n    }\r\n\r\n}",
  "sourcePath": "C:\\work\\quorum.smart-contracts\\contracts\\AttestationPartyStorage.sol",
  "compiler": {
    "name": "solc",
    "version": "0.4.24+commit.e67f0147.Emscripten.clang"
  },
  "schemaVersion": "2.0.1",
  "updatedAt": "2018-06-26T13:41:58.521Z"
}