{
  "contractName": "BaseVerification",
  "abi": [
    {
      "constant": true,
      "inputs": [],
      "name": "accountAddress",
      "outputs": [
        {
          "name": "",
          "type": "address"
        }
      ],
      "payable": false,
      "stateMutability": "view",
      "type": "function"
    },
    {
      "constant": true,
      "inputs": [],
      "name": "verificator",
      "outputs": [
        {
          "name": "",
          "type": "address"
        }
      ],
      "payable": false,
      "stateMutability": "view",
      "type": "function"
    },
    {
      "constant": false,
      "inputs": [],
      "name": "renounceOwnership",
      "outputs": [],
      "payable": false,
      "stateMutability": "nonpayable",
      "type": "function"
    },
    {
      "constant": true,
      "inputs": [],
      "name": "isVerified",
      "outputs": [
        {
          "name": "",
          "type": "bool"
        }
      ],
      "payable": false,
      "stateMutability": "view",
      "type": "function"
    },
    {
      "constant": true,
      "inputs": [],
      "name": "owner",
      "outputs": [
        {
          "name": "",
          "type": "address"
        }
      ],
      "payable": false,
      "stateMutability": "view",
      "type": "function"
    },
    {
      "constant": true,
      "inputs": [],
      "name": "accountFieldName",
      "outputs": [
        {
          "name": "",
          "type": "uint8"
        }
      ],
      "payable": false,
      "stateMutability": "view",
      "type": "function"
    },
    {
      "constant": true,
      "inputs": [],
      "name": "coOwner",
      "outputs": [
        {
          "name": "",
          "type": "address"
        }
      ],
      "payable": false,
      "stateMutability": "view",
      "type": "function"
    },
    {
      "constant": false,
      "inputs": [
        {
          "name": "newOwner",
          "type": "address"
        }
      ],
      "name": "transferOwnership",
      "outputs": [],
      "payable": false,
      "stateMutability": "nonpayable",
      "type": "function"
    },
    {
      "constant": true,
      "inputs": [],
      "name": "dataIndex",
      "outputs": [
        {
          "name": "",
          "type": "uint256"
        }
      ],
      "payable": false,
      "stateMutability": "view",
      "type": "function"
    },
    {
      "inputs": [
        {
          "name": "contextStorage",
          "type": "address"
        },
        {
          "name": "rewardAmount",
          "type": "uint256"
        },
        {
          "name": "account",
          "type": "address"
        },
        {
          "name": "coOwnerAddress",
          "type": "address"
        },
        {
          "name": "index",
          "type": "uint256"
        },
        {
          "name": "verificatorAddress",
          "type": "address"
        },
        {
          "name": "fieldName",
          "type": "uint8"
        }
      ],
      "payable": false,
      "stateMutability": "nonpayable",
      "type": "constructor"
    },
    {
      "anonymous": false,
      "inputs": [
        {
          "indexed": true,
          "name": "previousOwner",
          "type": "address"
        }
      ],
      "name": "OwnershipRenounced",
      "type": "event"
    },
    {
      "anonymous": false,
      "inputs": [
        {
          "indexed": true,
          "name": "previousOwner",
          "type": "address"
        },
        {
          "indexed": true,
          "name": "newOwner",
          "type": "address"
        }
      ],
      "name": "OwnershipTransferred",
      "type": "event"
    },
    {
      "constant": false,
      "inputs": [
        {
          "name": "verificationResult",
          "type": "bool"
        }
      ],
      "name": "setVerificationResult",
      "outputs": [],
      "payable": false,
      "stateMutability": "nonpayable",
      "type": "function"
    },
    {
      "constant": true,
      "inputs": [],
      "name": "getData",
      "outputs": [
        {
          "name": "data",
          "type": "string"
        },
        {
          "name": "objectType",
          "type": "string"
        }
      ],
      "payable": false,
      "stateMutability": "view",
      "type": "function"
    }
  ],
  "bytecode": "0x608060405234801561001057600080fd5b5060405160e080610b6f83398101604090815281516020830151918301516060840151608085015160a086015160c09096015160008054600160a060020a03338116600160a060020a03199283161790925560018054838916908316178082556002805485891690851617905560058054858a16908516178155600387905560048054958d169590941694909417909255600689905596989596949593948392909160a060020a60ff02191690740100000000000000000000000000000000000000009084908111156100df57fe5b021790555050505050505050610a75806100fa6000396000f3006080604052600436106100955763ffffffff60e060020a6000350416631e9b1312811461009a57806324de77ee146100cb5780633bc5de30146100e0578063715018a6146101d357806380007e83146101ea5780638da5cb5b14610213578063b7af4e0214610228578063d6d34c7c14610261578063e064c12f14610276578063f2fde38b14610290578063f70bd6dd146102b1575b600080fd5b3480156100a657600080fd5b506100af6102d8565b60408051600160a060020a039092168252519081900360200190f35b3480156100d757600080fd5b506100af6102e7565b3480156100ec57600080fd5b506100f56102f6565b604051808060200180602001838103835285818151815260200191508051906020019080838360005b8381101561013657818101518382015260200161011e565b50505050905090810190601f1680156101635780820380516001836020036101000a031916815260200191505b50838103825284518152845160209182019186019080838360005b8381101561019657818101518382015260200161017e565b50505050905090810190601f1680156101c35780820380516001836020036101000a031916815260200191505b5094505050505060405180910390f35b3480156101df57600080fd5b506101e86104f8565b005b3480156101f657600080fd5b506101ff610568565b604080519115158252519081900360200190f35b34801561021f57600080fd5b506100af610578565b34801561023457600080fd5b5061023d610587565b6040518082600581111561024d57fe5b60ff16815260200191505060405180910390f35b34801561026d57600080fd5b506100af610597565b34801561028257600080fd5b506101e860043515156105a6565b34801561029c57600080fd5b506101e8600160a060020a036004351661091b565b3480156102bd57600080fd5b506102c66109b3565b60408051918252519081900360200190f35b600554600160a060020a031681565b600454600160a060020a031681565b600054606090819033600160a060020a0390811691161461031657600080fd5b61031e6109b9565b600160a060020a03166314c6f21d6040518163ffffffff1660e060020a028152600401602060405180830381600087803b15801561035b57600080fd5b505af115801561036f573d6000803e3d6000fd5b505050506040513d602081101561038557600080fd5b5051600580546001546003546040517f617aaa11000000000000000000000000000000000000000000000000000000008152600160a060020a0393841660048201818152949096169563617aaa1195909460a060020a90940460ff1693916024019084908111156103f257fe5b60ff1681526020018281526020019350505050600060405180830381600087803b15801561041f57600080fd5b505af1158015610433573d6000803e3d6000fd5b505050506040513d6000823e601f3d908101601f19168201604090815281101561045c57600080fd5b81019080805164010000000081111561047457600080fd5b8201602081018481111561048757600080fd5b81516401000000008111828201871017156104a157600080fd5b505092919060200180516401000000008111156104bd57600080fd5b820160208101848111156104d057600080fd5b81516401000000008111828201871017156104ea57600080fd5b509496509450505050509091565b60005433600160a060020a0390811691161461051357600080fd5b60008054604051600160a060020a03909116917ff8df31144d9c2f0f6b59d69b8b98abd5459d07f2742c4df920b25aae33c6482091a26000805473ffffffffffffffffffffffffffffffffffffffff19169055565b60025460a060020a900460ff1681565b600054600160a060020a031681565b60015460a060020a900460ff1681565b600254600160a060020a031681565b60008054819033600160a060020a039081169116146105c457600080fd5b60025460a060020a900460ff16156105db57600080fd5b6105e36109b9565b915081600160a060020a03166363badc6e6040518163ffffffff1660e060020a028152600401602060405180830381600087803b15801561062357600080fd5b505af1158015610637573d6000803e3d6000fd5b505050506040513d602081101561064d57600080fd5b5051600654604080517f70a08231000000000000000000000000000000000000000000000000000000008152600160a060020a03308116600483015291519394509192908416916370a082319160248083019260209291908290030181600087803b1580156106bb57600080fd5b505af11580156106cf573d6000803e3d6000fd5b505050506040513d60208110156106e557600080fd5b5051146106f157600080fd5b6002805474ff0000000000000000000000000000000000000000191660a060020a8515150217905560008054600654604080517fa9059cbb000000000000000000000000000000000000000000000000000000008152600160a060020a0393841660048201526024810192909252519184169263a9059cbb926044808401936020939083900390910190829087803b15801561078c57600080fd5b505af11580156107a0573d6000803e3d6000fd5b505050506040513d60208110156107b657600080fd5b5050604080517f14c6f21d0000000000000000000000000000000000000000000000000000000081529051600160a060020a038416916314c6f21d9160048083019260209291908290030181600087803b15801561081357600080fd5b505af1158015610827573d6000803e3d6000fd5b505050506040513d602081101561083d57600080fd5b5051600580546001546040517f2ea0d356000000000000000000000000000000000000000000000000000000008152600160a060020a03928316600482018181529390951694632ea0d35694909360a060020a90930460ff1692899230924292916024019086908111156108ad57fe5b60ff1681526020018415151515815260200183600160a060020a0316600160a060020a0316815260200182815260200195505050505050600060405180830381600087803b1580156108fe57600080fd5b505af1158015610912573d6000803e3d6000fd5b50505050505050565b60005433600160a060020a0390811691161461093657600080fd5b600160a060020a038116151561094b57600080fd5b60008054604051600160a060020a03808516939216917f8be0079c531659141344cd1fd0a4f28419497f9722a3daafe3b4186f6b6457e091a36000805473ffffffffffffffffffffffffffffffffffffffff1916600160a060020a0392909216919091179055565b60035481565b600154604080517f127f0f070000000000000000000000000000000000000000000000000000000081529051600092600160a060020a03169163127f0f0791600480830192602092919082900301818787803b158015610a1857600080fd5b505af1158015610a2c573d6000803e3d6000fd5b505050506040513d6020811015610a4257600080fd5b50519190505600a165627a7a723058204af61e123bcef0b5f52d36339904974ff65e3e17600a2eb1238ab50648c7c6f10029",
  "source": "pragma solidity ^0.4.23;\r\n\r\n\r\nimport \"./openzeppelin-solidity/Ownable.sol\";\r\nimport \"./KimlicContractsContext.sol\";\r\nimport \"./AccountStorageAdapter.sol\";\r\nimport \"./WithKimlicContext.sol\";\r\nimport \"./KimlicToken.sol\";\r\n\r\ncontract BaseVerification is Ownable, WithKimlicContext {\r\n    AccountStorageAdapter.AccountFieldName public accountFieldName;\r\n    address public coOwner;\r\n    bool public isVerified;\r\n    uint public dataIndex;\r\n    address public verificator;\r\n    address public accountAddress;\r\n\r\n    uint internal _rewardAmount;\r\n\r\n    constructor(\r\n        address contextStorage, uint rewardAmount, address account, address coOwnerAddress, uint index, address verificatorAddress,\r\n        AccountStorageAdapter.AccountFieldName fieldName) public WithKimlicContext(contextStorage) Ownable() {\r\n\r\n        coOwner = coOwnerAddress;\r\n        accountAddress = account;\r\n        dataIndex = index;\r\n        verificator = verificatorAddress;\r\n        _rewardAmount = rewardAmount;\r\n        accountFieldName = fieldName;\r\n    }\r\n\r\n    function setVerificationResult(bool verificationResult) public onlyOwner() {\r\n        require(!isVerified);\r\n        \r\n        KimlicContractsContext context = getContext();\r\n        KimlicToken token = context.getKimlicToken();\r\n        require(token.balanceOf(address(this)) == _rewardAmount);\r\n        \r\n        isVerified = verificationResult;\r\n\r\n        token.transfer(owner, _rewardAmount);\r\n\r\n        context.getAccountStorageAdapter().setAccountFieldVerificationData(\r\n            accountAddress, accountFieldName, verificationResult, address(this), block.timestamp);\r\n    }\r\n\r\n    function getData() view public onlyOwner() returns (string data, string objectType) {\r\n        return getContext().getAccountStorageAdapter().getAccountFieldMainData(accountAddress, accountFieldName, dataIndex);\r\n    }\r\n}\r\n",
  "sourcePath": "C:\\work\\quorum.smart-contracts\\contracts\\BaseVerification.sol",
  "compiler": {
    "name": "solc",
    "version": "0.4.23+commit.124ca40d.Emscripten.clang"
  },
  "schemaVersion": "2.0.0",
  "updatedAt": "2018-06-22T09:40:37.628Z"
}