{
  "contractName": "KimlicContextStorage",
  "abi": [
    {
      "constant": false,
      "inputs": [
        {
          "name": "_key",
          "type": "bytes32"
        }
      ],
      "name": "deleteBytes32",
      "outputs": [],
      "payable": false,
      "stateMutability": "nonpayable",
      "type": "function"
    },
    {
      "constant": false,
      "inputs": [
        {
          "name": "_key",
          "type": "bytes32"
        }
      ],
      "name": "deleteAddress",
      "outputs": [],
      "payable": false,
      "stateMutability": "nonpayable",
      "type": "function"
    },
    {
      "constant": true,
      "inputs": [
        {
          "name": "_key",
          "type": "bytes32"
        }
      ],
      "name": "getAddress",
      "outputs": [
        {
          "name": "",
          "type": "address"
        }
      ],
      "payable": false,
      "stateMutability": "view",
      "type": "function"
    },
    {
      "constant": false,
      "inputs": [
        {
          "name": "_key",
          "type": "bytes32"
        }
      ],
      "name": "deleteBool",
      "outputs": [],
      "payable": false,
      "stateMutability": "nonpayable",
      "type": "function"
    },
    {
      "constant": false,
      "inputs": [
        {
          "name": "_key",
          "type": "bytes32"
        },
        {
          "name": "_value",
          "type": "int256"
        }
      ],
      "name": "setInt",
      "outputs": [],
      "payable": false,
      "stateMutability": "nonpayable",
      "type": "function"
    },
    {
      "constant": false,
      "inputs": [
        {
          "name": "_key",
          "type": "bytes32"
        },
        {
          "name": "_value",
          "type": "bytes32"
        }
      ],
      "name": "setBytes32",
      "outputs": [],
      "payable": false,
      "stateMutability": "nonpayable",
      "type": "function"
    },
    {
      "constant": false,
      "inputs": [
        {
          "name": "_key",
          "type": "bytes32"
        },
        {
          "name": "_value",
          "type": "string"
        }
      ],
      "name": "setString",
      "outputs": [],
      "payable": false,
      "stateMutability": "nonpayable",
      "type": "function"
    },
    {
      "constant": false,
      "inputs": [],
      "name": "renounceOwnership",
      "outputs": [],
      "payable": false,
      "stateMutability": "nonpayable",
      "type": "function"
    },
    {
      "constant": true,
      "inputs": [
        {
          "name": "_key",
          "type": "bytes32"
        }
      ],
      "name": "getBool",
      "outputs": [
        {
          "name": "",
          "type": "bool"
        }
      ],
      "payable": false,
      "stateMutability": "view",
      "type": "function"
    },
    {
      "constant": false,
      "inputs": [
        {
          "name": "_key",
          "type": "bytes32"
        }
      ],
      "name": "deleteInt",
      "outputs": [],
      "payable": false,
      "stateMutability": "nonpayable",
      "type": "function"
    },
    {
      "constant": true,
      "inputs": [],
      "name": "owner",
      "outputs": [
        {
          "name": "",
          "type": "address"
        }
      ],
      "payable": false,
      "stateMutability": "view",
      "type": "function"
    },
    {
      "constant": true,
      "inputs": [
        {
          "name": "_key",
          "type": "bytes32"
        }
      ],
      "name": "getString",
      "outputs": [
        {
          "name": "",
          "type": "string"
        }
      ],
      "payable": false,
      "stateMutability": "view",
      "type": "function"
    },
    {
      "constant": true,
      "inputs": [
        {
          "name": "_key",
          "type": "bytes32"
        }
      ],
      "name": "getBytes32",
      "outputs": [
        {
          "name": "",
          "type": "bytes32"
        }
      ],
      "payable": false,
      "stateMutability": "view",
      "type": "function"
    },
    {
      "constant": false,
      "inputs": [
        {
          "name": "_key",
          "type": "bytes32"
        },
        {
          "name": "_value",
          "type": "bool"
        }
      ],
      "name": "setBool",
      "outputs": [],
      "payable": false,
      "stateMutability": "nonpayable",
      "type": "function"
    },
    {
      "constant": true,
      "inputs": [
        {
          "name": "_key",
          "type": "bytes32"
        }
      ],
      "name": "getUint",
      "outputs": [
        {
          "name": "",
          "type": "uint256"
        }
      ],
      "payable": false,
      "stateMutability": "view",
      "type": "function"
    },
    {
      "constant": false,
      "inputs": [
        {
          "name": "_key",
          "type": "bytes32"
        },
        {
          "name": "_value",
          "type": "address"
        }
      ],
      "name": "setAddress",
      "outputs": [],
      "payable": false,
      "stateMutability": "nonpayable",
      "type": "function"
    },
    {
      "constant": true,
      "inputs": [
        {
          "name": "_key",
          "type": "bytes32"
        }
      ],
      "name": "getInt",
      "outputs": [
        {
          "name": "",
          "type": "int256"
        }
      ],
      "payable": false,
      "stateMutability": "view",
      "type": "function"
    },
    {
      "constant": false,
      "inputs": [
        {
          "name": "_key",
          "type": "bytes32"
        },
        {
          "name": "_value",
          "type": "uint256"
        }
      ],
      "name": "setUint",
      "outputs": [],
      "payable": false,
      "stateMutability": "nonpayable",
      "type": "function"
    },
    {
      "constant": false,
      "inputs": [
        {
          "name": "_key",
          "type": "bytes32"
        }
      ],
      "name": "deleteUint",
      "outputs": [],
      "payable": false,
      "stateMutability": "nonpayable",
      "type": "function"
    },
    {
      "constant": false,
      "inputs": [
        {
          "name": "newOwner",
          "type": "address"
        }
      ],
      "name": "transferOwnership",
      "outputs": [],
      "payable": false,
      "stateMutability": "nonpayable",
      "type": "function"
    },
    {
      "constant": false,
      "inputs": [
        {
          "name": "_key",
          "type": "bytes32"
        }
      ],
      "name": "deleteString",
      "outputs": [],
      "payable": false,
      "stateMutability": "nonpayable",
      "type": "function"
    },
    {
      "anonymous": false,
      "inputs": [
        {
          "indexed": true,
          "name": "previousOwner",
          "type": "address"
        }
      ],
      "name": "OwnershipRenounced",
      "type": "event"
    },
    {
      "anonymous": false,
      "inputs": [
        {
          "indexed": true,
          "name": "previousOwner",
          "type": "address"
        },
        {
          "indexed": true,
          "name": "newOwner",
          "type": "address"
        }
      ],
      "name": "OwnershipTransferred",
      "type": "event"
    },
    {
      "constant": false,
      "inputs": [
        {
          "name": "context",
          "type": "address"
        }
      ],
      "name": "setContext",
      "outputs": [],
      "payable": false,
      "stateMutability": "nonpayable",
      "type": "function"
    },
    {
      "constant": true,
      "inputs": [],
      "name": "getContext",
      "outputs": [
        {
          "name": "context",
          "type": "address"
        }
      ],
      "payable": false,
      "stateMutability": "view",
      "type": "function"
    }
  ],
  "bytecode": "0x608060405260068054600160a060020a03191633600160a060020a0316179055610f288061002e6000396000f3006080604052600436106101325763ffffffff7c01000000000000000000000000000000000000000000000000000000006000350416630b9adc5781146101375780630e14a37614610151578063127f0f07146101695780631cd48fa31461019a57806321f8a721146101bb5780632c62ff2d146101d35780633e49bed0146101eb5780634e91db08146102065780636e89955014610221578063715018a6146102455780637ae1cfca1461025a5780638c160095146102865780638da5cb5b1461029e578063986e791a146102b3578063a6ed563e14610340578063abfdcced1461036a578063bd02d0f514610387578063ca446dd91461039f578063dc97d962146103c3578063e2a4853a146103db578063e2b202bf146103f6578063f2fde38b1461040e578063f6bb3cc41461042f575b600080fd5b34801561014357600080fd5b5061014f600435610447565b005b34801561015d57600080fd5b5061014f6004356104a8565b34801561017557600080fd5b5061017e610523565b60408051600160a060020a039092168252519081900360200190f35b3480156101a657600080fd5b5061014f600160a060020a0360043516610550565b3480156101c757600080fd5b5061017e6004356105b6565b3480156101df57600080fd5b5061014f600435610624565b3480156101f757600080fd5b5061014f60043560243561068c565b34801561021257600080fd5b5061014f6004356024356106ee565b34801561022d57600080fd5b5061014f600480359060248035908101910135610750565b34801561025157600080fd5b5061014f6107bf565b34801561026657600080fd5b50610272600435610831565b604080519115158252519081900360200190f35b34801561029257600080fd5b5061014f600435610899565b3480156102aa57600080fd5b5061017e6108fa565b3480156102bf57600080fd5b506102cb600435610909565b6040805160208082528351818301528351919283929083019185019080838360005b838110156103055781810151838201526020016102ed565b50505050905090810190601f1680156103325780820380516001836020036101000a031916815260200191505b509250505060405180910390f35b34801561034c57600080fd5b506103586004356109fc565b60408051918252519081900360200190f35b34801561037657600080fd5b5061014f6004356024351515610a61565b34801561039357600080fd5b50610358600435610ad1565b3480156103ab57600080fd5b5061014f600435600160a060020a0360243516610b36565b3480156103cf57600080fd5b50610358600435610bc1565b3480156103e757600080fd5b5061014f600435602435610c26565b34801561040257600080fd5b5061014f600435610c88565b34801561041a57600080fd5b5061014f600160a060020a0360043516610ce9565b34801561043b57600080fd5b5061014f600435610d82565b60026000610453610dec565b815260208101919091526040016000205433600160a060020a039081169116148061048c575060065433600160a060020a039081169116145b151561049757600080fd5b600090815260036020526040812055565b600260006104b4610dec565b815260208101919091526040016000205433600160a060020a03908116911614806104ed575060065433600160a060020a039081169116145b15156104f857600080fd5b6000908152600260205260409020805473ffffffffffffffffffffffffffffffffffffffff19169055565b600060026000610531610dec565b8152602081019190915260400160002054600160a060020a0316919050565b60065433600160a060020a0390811691161461056b57600080fd5b8060026000610578610dec565b81526020810191909152604001600020805473ffffffffffffffffffffffffffffffffffffffff1916600160a060020a039290921691909117905550565b6000600260006105c4610dec565b815260208101919091526040016000205433600160a060020a03908116911614806105fd575060065433600160a060020a039081169116145b151561060857600080fd5b50600090815260026020526040902054600160a060020a031690565b60026000610630610dec565b815260208101919091526040016000205433600160a060020a0390811691161480610669575060065433600160a060020a039081169116145b151561067457600080fd5b6000908152600460205260409020805460ff19169055565b60026000610698610dec565b815260208101919091526040016000205433600160a060020a03908116911614806106d1575060065433600160a060020a039081169116145b15156106dc57600080fd5b60009182526005602052604090912055565b600260006106fa610dec565b815260208101919091526040016000205433600160a060020a0390811691161480610733575060065433600160a060020a039081169116145b151561073e57600080fd5b60009182526003602052604090912055565b6002600061075c610dec565b815260208101919091526040016000205433600160a060020a0390811691161480610795575060065433600160a060020a039081169116145b15156107a057600080fd5b60008381526001602052604090206107b9908383610e21565b50505050565b60065433600160a060020a039081169116146107da57600080fd5b600654604051600160a060020a03909116907ff8df31144d9c2f0f6b59d69b8b98abd5459d07f2742c4df920b25aae33c6482090600090a26006805473ffffffffffffffffffffffffffffffffffffffff19169055565b60006002600061083f610dec565b815260208101919091526040016000205433600160a060020a0390811691161480610878575060065433600160a060020a039081169116145b151561088357600080fd5b5060009081526004602052604090205460ff1690565b600260006108a5610dec565b815260208101919091526040016000205433600160a060020a03908116911614806108de575060065433600160a060020a039081169116145b15156108e957600080fd5b600090815260056020526040812055565b600654600160a060020a031681565b606060026000610917610dec565b815260208101919091526040016000205433600160a060020a0390811691161480610950575060065433600160a060020a039081169116145b151561095b57600080fd5b60008281526001602081815260409283902080548451600260001995831615610100029590950190911693909304601f81018390048302840183019094528383529192908301828280156109f05780601f106109c5576101008083540402835291602001916109f0565b820191906000526020600020905b8154815290600101906020018083116109d357829003601f168201915b50505050509050919050565b600060026000610a0a610dec565b815260208101919091526040016000205433600160a060020a0390811691161480610a43575060065433600160a060020a039081169116145b1515610a4e57600080fd5b5060009081526003602052604090205490565b60026000610a6d610dec565b815260208101919091526040016000205433600160a060020a0390811691161480610aa6575060065433600160a060020a039081169116145b1515610ab157600080fd5b600091825260046020526040909120805460ff1916911515919091179055565b600060026000610adf610dec565b815260208101919091526040016000205433600160a060020a0390811691161480610b18575060065433600160a060020a039081169116145b1515610b2357600080fd5b5060009081526020819052604090205490565b60026000610b42610dec565b815260208101919091526040016000205433600160a060020a0390811691161480610b7b575060065433600160a060020a039081169116145b1515610b8657600080fd5b600091825260026020526040909120805473ffffffffffffffffffffffffffffffffffffffff1916600160a060020a03909216919091179055565b600060026000610bcf610dec565b815260208101919091526040016000205433600160a060020a0390811691161480610c08575060065433600160a060020a039081169116145b1515610c1357600080fd5b5060009081526005602052604090205490565b60026000610c32610dec565b815260208101919091526040016000205433600160a060020a0390811691161480610c6b575060065433600160a060020a039081169116145b1515610c7657600080fd5b60009182526020829052604090912055565b60026000610c94610dec565b815260208101919091526040016000205433600160a060020a0390811691161480610ccd575060065433600160a060020a039081169116145b1515610cd857600080fd5b600090815260208190526040812055565b60065433600160a060020a03908116911614610d0457600080fd5b600160a060020a0381161515610d1957600080fd5b600654604051600160a060020a038084169216907f8be0079c531659141344cd1fd0a4f28419497f9722a3daafe3b4186f6b6457e090600090a36006805473ffffffffffffffffffffffffffffffffffffffff1916600160a060020a0392909216919091179055565b60026000610d8e610dec565b815260208101919091526040016000205433600160a060020a0390811691161480610dc7575060065433600160a060020a039081169116145b1515610dd257600080fd5b6000818152600160205260408120610de991610e9f565b50565b604080517f6b696d6c6963436f6e74657874000000000000000000000000000000000000008152905190819003600d01902090565b828054600181600116156101000203166002900490600052602060002090601f016020900481019282601f10610e625782800160ff19823516178555610e8f565b82800160010185558215610e8f579182015b82811115610e8f578235825591602001919060010190610e74565b50610e9b929150610edf565b5090565b50805460018160011615610100020316600290046000825580601f10610ec55750610de9565b601f016020900490600052602060002090810190610de991905b610ef991905b80821115610e9b5760008155600101610ee5565b905600a165627a7a7230582066c1bb40a6d70e9fb9d25d651d9734b862224c75925f964c4dd0177dff2f2bec0029",
  "source": "pragma solidity ^0.4.23;\r\n\r\n\r\nimport \"./openzeppelin-solidity/Ownable.sol\";\r\nimport \"./KimlicContractsContext.sol\";\r\nimport \"./BaseStorage.sol\";\r\n\r\ncontract KimlicContextStorage is BaseStorage, Ownable {\r\n\r\n    /// constructors ///\r\n\r\n    /// public methods ///\r\n    function setContext(address context) public onlyOwner() {\r\n        addressStorage[getContextKey()] = context;\r\n    }\r\n\r\n    function getContext() public view returns (KimlicContractsContext context) {\r\n        context = KimlicContractsContext(addressStorage[getContextKey()]);\r\n    }\r\n\r\n    /// private methods ///\r\n    function getContextKey() private pure returns(bytes32 key) {\r\n        key = keccak256(\"kimlicContext\");\r\n    }\r\n\r\n    /// modifiers ///\r\n    modifier accessRestriction() {\r\n        require(msg.sender == addressStorage[getContextKey()] || msg.sender == owner);\r\n        _;\r\n    }\r\n\r\n}",
  "sourcePath": "C:\\work\\quorum.smart-contracts\\contracts\\KimlicContextStorage.sol",
  "compiler": {
    "name": "solc",
    "version": "0.4.23+commit.124ca40d.Emscripten.clang"
  },
  "schemaVersion": "2.0.0",
  "updatedAt": "2018-06-26T09:55:44.937Z"
}