{
  "contractName": "KimlicContractsContext",
  "abi": [
    {
      "constant": false,
      "inputs": [],
      "name": "renounceOwnership",
      "outputs": [],
      "payable": false,
      "stateMutability": "nonpayable",
      "type": "function"
    },
    {
      "constant": true,
      "inputs": [],
      "name": "owner",
      "outputs": [
        {
          "name": "",
          "type": "address"
        }
      ],
      "payable": false,
      "stateMutability": "view",
      "type": "function"
    },
    {
      "constant": false,
      "inputs": [
        {
          "name": "newOwner",
          "type": "address"
        }
      ],
      "name": "transferOwnership",
      "outputs": [],
      "payable": false,
      "stateMutability": "nonpayable",
      "type": "function"
    },
    {
      "inputs": [
        {
          "name": "storageAddress",
          "type": "address"
        }
      ],
      "payable": false,
      "stateMutability": "nonpayable",
      "type": "constructor"
    },
    {
      "anonymous": false,
      "inputs": [
        {
          "indexed": true,
          "name": "previousOwner",
          "type": "address"
        }
      ],
      "name": "OwnershipRenounced",
      "type": "event"
    },
    {
      "anonymous": false,
      "inputs": [
        {
          "indexed": true,
          "name": "previousOwner",
          "type": "address"
        },
        {
          "indexed": true,
          "name": "newOwner",
          "type": "address"
        }
      ],
      "name": "OwnershipTransferred",
      "type": "event"
    },
    {
      "constant": true,
      "inputs": [],
      "name": "getAccountStorageAdapter",
      "outputs": [
        {
          "name": "accountStorageAdapter",
          "type": "address"
        }
      ],
      "payable": false,
      "stateMutability": "view",
      "type": "function"
    },
    {
      "constant": true,
      "inputs": [],
      "name": "getKimlicToken",
      "outputs": [
        {
          "name": "kimlicToken",
          "type": "address"
        }
      ],
      "payable": false,
      "stateMutability": "view",
      "type": "function"
    },
    {
      "constant": true,
      "inputs": [],
      "name": "getVerificationContractFactory",
      "outputs": [
        {
          "name": "verificationContractFactory",
          "type": "address"
        }
      ],
      "payable": false,
      "stateMutability": "view",
      "type": "function"
    },
    {
      "constant": true,
      "inputs": [],
      "name": "getProvisioningPrice",
      "outputs": [
        {
          "name": "provisioningPrice",
          "type": "address"
        }
      ],
      "payable": false,
      "stateMutability": "view",
      "type": "function"
    },
    {
      "constant": true,
      "inputs": [],
      "name": "getProvisioningContractFactory",
      "outputs": [
        {
          "name": "provisioningContractFactory",
          "type": "address"
        }
      ],
      "payable": false,
      "stateMutability": "view",
      "type": "function"
    },
    {
      "constant": true,
      "inputs": [],
      "name": "getCommunityTokenWalletAddress",
      "outputs": [
        {
          "name": "communityTokenWalletAddress",
          "type": "address"
        }
      ],
      "payable": false,
      "stateMutability": "view",
      "type": "function"
    },
    {
      "constant": true,
      "inputs": [],
      "name": "getRewardingContract",
      "outputs": [
        {
          "name": "rewardingContract",
          "type": "address"
        }
      ],
      "payable": false,
      "stateMutability": "view",
      "type": "function"
    },
    {
      "constant": true,
      "inputs": [],
      "name": "getAccountStorage",
      "outputs": [
        {
          "name": "accountStorage",
          "type": "address"
        }
      ],
      "payable": false,
      "stateMutability": "view",
      "type": "function"
    },
    {
      "constant": true,
      "inputs": [],
      "name": "getRelyingPartyStorageAdapter",
      "outputs": [
        {
          "name": "relyingPartyStorageAdapter",
          "type": "address"
        }
      ],
      "payable": false,
      "stateMutability": "view",
      "type": "function"
    },
    {
      "constant": true,
      "inputs": [],
      "name": "getRelyingPartyStorage",
      "outputs": [
        {
          "name": "relyingPartyStorage",
          "type": "address"
        }
      ],
      "payable": false,
      "stateMutability": "view",
      "type": "function"
    },
    {
      "constant": true,
      "inputs": [],
      "name": "getAttestationPartyStorageAdapter",
      "outputs": [
        {
          "name": "attestationPartyStorageAdapter",
          "type": "address"
        }
      ],
      "payable": false,
      "stateMutability": "view",
      "type": "function"
    },
    {
      "constant": true,
      "inputs": [],
      "name": "getAttestationPartyStorage",
      "outputs": [
        {
          "name": "attestationPartyStorage",
          "type": "address"
        }
      ],
      "payable": false,
      "stateMutability": "view",
      "type": "function"
    },
    {
      "constant": false,
      "inputs": [
        {
          "name": "accountStorageAdapterAddress",
          "type": "address"
        }
      ],
      "name": "setAccountStorageAdapter",
      "outputs": [],
      "payable": false,
      "stateMutability": "nonpayable",
      "type": "function"
    },
    {
      "constant": false,
      "inputs": [
        {
          "name": "kimlicTokenAddress",
          "type": "address"
        }
      ],
      "name": "setKimlicToken",
      "outputs": [],
      "payable": false,
      "stateMutability": "nonpayable",
      "type": "function"
    },
    {
      "constant": false,
      "inputs": [
        {
          "name": "verificationContractFactoryAddress",
          "type": "address"
        }
      ],
      "name": "setVerificationContractFactory",
      "outputs": [],
      "payable": false,
      "stateMutability": "nonpayable",
      "type": "function"
    },
    {
      "constant": false,
      "inputs": [
        {
          "name": "provisioningPriceAddress",
          "type": "address"
        }
      ],
      "name": "setProvisioningPrice",
      "outputs": [],
      "payable": false,
      "stateMutability": "nonpayable",
      "type": "function"
    },
    {
      "constant": false,
      "inputs": [
        {
          "name": "provisioningContractFactoryAddress",
          "type": "address"
        }
      ],
      "name": "setProvisioningContractFactory",
      "outputs": [],
      "payable": false,
      "stateMutability": "nonpayable",
      "type": "function"
    },
    {
      "constant": false,
      "inputs": [
        {
          "name": "communityTokenWalletAddressAddress",
          "type": "address"
        }
      ],
      "name": "setCommunityTokenWalletAddress",
      "outputs": [],
      "payable": false,
      "stateMutability": "nonpayable",
      "type": "function"
    },
    {
      "constant": false,
      "inputs": [
        {
          "name": "rewardingContractAddress",
          "type": "address"
        }
      ],
      "name": "setRewardingContract",
      "outputs": [],
      "payable": false,
      "stateMutability": "nonpayable",
      "type": "function"
    },
    {
      "constant": false,
      "inputs": [
        {
          "name": "accountStorageAddress",
          "type": "address"
        }
      ],
      "name": "setAccountStorage",
      "outputs": [],
      "payable": false,
      "stateMutability": "nonpayable",
      "type": "function"
    },
    {
      "constant": false,
      "inputs": [
        {
          "name": "relyingPartyStorageAdapterAddress",
          "type": "address"
        }
      ],
      "name": "setRelyingPartyStorageAdapter",
      "outputs": [],
      "payable": false,
      "stateMutability": "nonpayable",
      "type": "function"
    },
    {
      "constant": false,
      "inputs": [
        {
          "name": "relyingPartyStorageAddress",
          "type": "address"
        }
      ],
      "name": "setRelyingPartyStorage",
      "outputs": [],
      "payable": false,
      "stateMutability": "nonpayable",
      "type": "function"
    },
    {
      "constant": false,
      "inputs": [
        {
          "name": "attestationPartyStorageAdapterAddress",
          "type": "address"
        }
      ],
      "name": "setAttestationPartyStorageAdapter",
      "outputs": [],
      "payable": false,
      "stateMutability": "nonpayable",
      "type": "function"
    },
    {
      "constant": false,
      "inputs": [
        {
          "name": "attestationPartyStorageAddress",
          "type": "address"
        }
      ],
      "name": "setAttestationPartyStorage",
      "outputs": [],
      "payable": false,
      "stateMutability": "nonpayable",
      "type": "function"
    }
  ],
  "bytecode": "0x60806040523480156200001157600080fd5b5060405160208062001718833981016040818152915160008054600160a060020a03338116600160a060020a031992831617909255600d80549284169290911691909117905560208083018190526015848401527f6163636f756e7453746f7261676541646170746572000000000000000000000060608085019190915284518085039091018152608090930193849052825191939182918401908083835b60208310620000d15780518252601f199092019160209182019101620000b0565b51815160209384036101000a600019018019909216911617905260408051929094018290038220600155818101819052600b828501527f6b696d6c6963546f6b656e0000000000000000000000000000000000000000006060808401919091528451808403909101815260809092019384905281519195509293508392850191508083835b60208310620001775780518252601f19909201916020918201910162000156565b51815160209384036101000a600019018019909216911617905260408051929094018290038220600255818101819052601b828501527f766572696669636174696f6e436f6e7472616374466163746f727900000000006060808401919091528451808403909101815260809092019384905281519195509293508392850191508083835b602083106200021d5780518252601f199092019160209182019101620001fc565b51815160209384036101000a6000190180199092169116179052604080519290940182900382206003558181018190526011828501527f70726f766973696f6e696e6750726963650000000000000000000000000000006060808401919091528451808403909101815260809092019384905281519195509293508392850191508083835b60208310620002c35780518252601f199092019160209182019101620002a2565b51815160209384036101000a600019018019909216911617905260408051929094018290038220600455818101819052601b828501527f70726f766973696f6e696e67436f6e7472616374466163746f727900000000006060808401919091528451808403909101815260809092019384905281519195509293508392850191508083835b60208310620003695780518252601f19909201916020918201910162000348565b51815160209384036101000a600019018019909216911617905260408051929094018290038220600555818101819052601b828501527f636f6d6d756e697479546f6b656e57616c6c65744164647265737300000000006060808401919091528451808403909101815260809092019384905281519195509293508392850191508083835b602083106200040f5780518252601f199092019160209182019101620003ee565b51815160209384036101000a6000190180199092169116179052604080519290940182900382206006558181018190526011828501527f726577617264696e67436f6e74726163740000000000000000000000000000006060808401919091528451808403909101815260809092019384905281519195509293508392850191508083835b60208310620004b55780518252601f19909201916020918201910162000494565b51815160209384036101000a600019018019909216911617905260408051929094018290038220600755818101819052600e828501527f6163636f756e7453746f726167650000000000000000000000000000000000006060808401919091528451808403909101815260809092019384905281519195509293508392850191508083835b602083106200055b5780518252601f1990920191602091820191016200053a565b51815160209384036101000a600019018019909216911617905260408051929094018290038220600855818101819052601a828501527f72656c79696e67506172747953746f72616765416461707465720000000000006060808401919091528451808403909101815260809092019384905281519195509293508392850191508083835b60208310620006015780518252601f199092019160209182019101620005e0565b51815160209384036101000a6000190180199092169116179052604080519290940182900382206009558181018190526013828501527f72656c79696e67506172747953746f72616765000000000000000000000000006060808401919091528451808403909101815260809092019384905281519195509293508392850191508083835b60208310620006a75780518252601f19909201916020918201910162000686565b51815160209384036101000a600019018019909216911617905260408051929094018290038220600a55818101819052601e828501527f6174746573746174696f6e506172747953746f726167654164617074657200006060808401919091528451808403909101815260809092019384905281519195509293508392850191508083835b602083106200074d5780518252601f1990920191602091820191016200072c565b51815160209384036101000a600019018019909216911617905260408051929094018290038220600b558181018190526017828501527f6174746573746174696f6e506172747953746f726167650000000000000000006060808401919091528451808403909101815260809092019384905281519195509293508392850191508083835b60208310620007f35780518252601f199092019160209182019101620007d2565b5181516000196020949094036101000a939093019283169219169190911790526040519201829003909120600c5550505050610ee380620008356000396000f30060806040526004361061015e5763ffffffff7c0100000000000000000000000000000000000000000000000000000000600035041663070caeb08114610163578063072496531461018657806309ccc1db146101a75780630c943729146101d857806314c6f21d146101ed5780631940d3991461020257806322d2dd3414610217578063293b0c4e1461022c578063294cf9b0146102415780634b2c8464146102565780634dac0a431461027757806352380f61146102985780635645332e146102b957806363badc6e146102da578063715018a6146102ef57806376b80b3a146103045780638da5cb5b146103255780639a69a5b81461033a578063ac3f83da1461035b578063b1b97f2d14610370578063b583127d14610391578063b819723a146103b2578063beb83712146103c7578063cba8e0d2146103dc578063ef835a0b146103fd578063f1cba9df14610412578063f2fde38b14610433575b600080fd5b34801561016f57600080fd5b50610184600160a060020a0360043516610454565b005b34801561019257600080fd5b50610184600160a060020a03600435166104e5565b3480156101b357600080fd5b506101bc610540565b60408051600160a060020a039092168252519081900360200190f35b3480156101e457600080fd5b506101bc6105c4565b3480156101f957600080fd5b506101bc610617565b34801561020e57600080fd5b506101bc61066a565b34801561022357600080fd5b506101bc6106bd565b34801561023857600080fd5b506101bc610710565b34801561024d57600080fd5b506101bc610763565b34801561026257600080fd5b50610184600160a060020a03600435166107b6565b34801561028357600080fd5b50610184600160a060020a036004351661082c565b3480156102a457600080fd5b50610184600160a060020a0360043516610887565b3480156102c557600080fd5b50610184600160a060020a03600435166108fd565b3480156102e657600080fd5b506101bc610973565b3480156102fb57600080fd5b506101846109c6565b34801561031057600080fd5b50610184600160a060020a0360043516610a36565b34801561033157600080fd5b506101bc610a91565b34801561034657600080fd5b50610184600160a060020a0360043516610aa0565b34801561036757600080fd5b506101bc610b16565b34801561037c57600080fd5b50610184600160a060020a0360043516610b69565b34801561039d57600080fd5b50610184600160a060020a0360043516610bc4565b3480156103be57600080fd5b506101bc610c3a565b3480156103d357600080fd5b506101bc610c8d565b3480156103e857600080fd5b50610184600160a060020a0360043516610ce0565b34801561040957600080fd5b506101bc610d56565b34801561041e57600080fd5b50610184600160a060020a0360043516610da9565b34801561043f57600080fd5b50610184600160a060020a0360043516610e1f565b60005433600160a060020a0390811691161461046f57600080fd5b600d546001546040805160e060020a63ca446dd90281526004810192909252600160a060020a038481166024840152905192169163ca446dd99160448082019260009290919082900301818387803b1580156104ca57600080fd5b505af11580156104de573d6000803e3d6000fd5b5050505050565b600d54600c546040805160e060020a63ca446dd90281526004810192909252600160a060020a038481166024840152905192169163ca446dd99160448082019260009290919082900301818387803b1580156104ca57600080fd5b600d546006546040805160e060020a6321f8a721028152600481019290925251600092600160a060020a0316916321f8a72191602480830192602092919082900301818787803b15801561059357600080fd5b505af11580156105a7573d6000803e3d6000fd5b505050506040513d60208110156105bd57600080fd5b5051919050565b600d546009546040805160e060020a6321f8a721028152600481019290925251600092600160a060020a0316916321f8a72191602480830192602092919082900301818787803b15801561059357600080fd5b600d546001546040805160e060020a6321f8a721028152600481019290925251600092600160a060020a0316916321f8a72191602480830192602092919082900301818787803b15801561059357600080fd5b600d54600b546040805160e060020a6321f8a721028152600481019290925251600092600160a060020a0316916321f8a72191602480830192602092919082900301818787803b15801561059357600080fd5b600d546003546040805160e060020a6321f8a721028152600481019290925251600092600160a060020a0316916321f8a72191602480830192602092919082900301818787803b15801561059357600080fd5b600d546008546040805160e060020a6321f8a721028152600481019290925251600092600160a060020a0316916321f8a72191602480830192602092919082900301818787803b15801561059357600080fd5b600d54600a546040805160e060020a6321f8a721028152600481019290925251600092600160a060020a0316916321f8a72191602480830192602092919082900301818787803b15801561059357600080fd5b60005433600160a060020a039081169116146107d157600080fd5b600d546007546040805160e060020a63ca446dd90281526004810192909252600160a060020a038481166024840152905192169163ca446dd99160448082019260009290919082900301818387803b1580156104ca57600080fd5b600d546009546040805160e060020a63ca446dd90281526004810192909252600160a060020a038481166024840152905192169163ca446dd99160448082019260009290919082900301818387803b1580156104ca57600080fd5b60005433600160a060020a039081169116146108a257600080fd5b600d546002546040805160e060020a63ca446dd90281526004810192909252600160a060020a038481166024840152905192169163ca446dd99160448082019260009290919082900301818387803b1580156104ca57600080fd5b60005433600160a060020a0390811691161461091857600080fd5b600d54600480546040805160e060020a63ca446dd902815292830191909152600160a060020a038481166024840152905192169163ca446dd99160448082019260009290919082900301818387803b1580156104ca57600080fd5b600d546002546040805160e060020a6321f8a721028152600481019290925251600092600160a060020a0316916321f8a72191602480830192602092919082900301818787803b15801561059357600080fd5b60005433600160a060020a039081169116146109e157600080fd5b60008054604051600160a060020a03909116917ff8df31144d9c2f0f6b59d69b8b98abd5459d07f2742c4df920b25aae33c6482091a26000805473ffffffffffffffffffffffffffffffffffffffff19169055565b600d54600a546040805160e060020a63ca446dd90281526004810192909252600160a060020a038481166024840152905192169163ca446dd99160448082019260009290919082900301818387803b1580156104ca57600080fd5b600054600160a060020a031681565b60005433600160a060020a03908116911614610abb57600080fd5b600d546003546040805160e060020a63ca446dd90281526004810192909252600160a060020a038481166024840152905192169163ca446dd99160448082019260009290919082900301818387803b1580156104ca57600080fd5b600d54600c546040805160e060020a6321f8a721028152600481019290925251600092600160a060020a0316916321f8a72191602480830192602092919082900301818787803b15801561059357600080fd5b600d54600b546040805160e060020a63ca446dd90281526004810192909252600160a060020a038481166024840152905192169163ca446dd99160448082019260009290919082900301818387803b1580156104ca57600080fd5b60005433600160a060020a03908116911614610bdf57600080fd5b600d546008546040805160e060020a63ca446dd90281526004810192909252600160a060020a038481166024840152905192169163ca446dd99160448082019260009290919082900301818387803b1580156104ca57600080fd5b600d546005546040805160e060020a6321f8a721028152600481019290925251600092600160a060020a0316916321f8a72191602480830192602092919082900301818787803b15801561059357600080fd5b600d546007546040805160e060020a6321f8a721028152600481019290925251600092600160a060020a0316916321f8a72191602480830192602092919082900301818787803b15801561059357600080fd5b60005433600160a060020a03908116911614610cfb57600080fd5b600d546006546040805160e060020a63ca446dd90281526004810192909252600160a060020a038481166024840152905192169163ca446dd99160448082019260009290919082900301818387803b1580156104ca57600080fd5b600d54600480546040805160e060020a6321f8a7210281529283019190915251600092600160a060020a0316916321f8a72191602480830192602092919082900301818787803b15801561059357600080fd5b60005433600160a060020a03908116911614610dc457600080fd5b600d546005546040805160e060020a63ca446dd90281526004810192909252600160a060020a038481166024840152905192169163ca446dd99160448082019260009290919082900301818387803b1580156104ca57600080fd5b60005433600160a060020a03908116911614610e3a57600080fd5b600160a060020a0381161515610e4f57600080fd5b60008054604051600160a060020a03808516939216917f8be0079c531659141344cd1fd0a4f28419497f9722a3daafe3b4186f6b6457e091a36000805473ffffffffffffffffffffffffffffffffffffffff1916600160a060020a03929092169190911790555600a165627a7a72305820f5f1121faae660d3edd72e7c6a06874d180317c9aac18196aae49f9f2c0d50ed0029",
  "source": "pragma solidity ^0.4.23;\r\n\r\n\r\nimport \"./KimlicContextStorage.sol\";\r\nimport \"./openzeppelin-solidity/Ownable.sol\";\r\nimport \"./AccountStorage.sol\";\r\nimport \"./AccountStorageAdapter.sol\";\r\nimport \"./KimlicToken.sol\";\r\nimport \"./ProvisioningPrice.sol\";\r\nimport \"./ProvisioningContractFactory.sol\";\r\nimport \"./VerificationContractFactory.sol\";\r\nimport \"./BaseStorage.sol\";\r\nimport \"./RewardingContract.sol\";\r\nimport \"./RelyingPartyStorageAdapter.sol\";\r\nimport \"./RelyingPartyStorage.sol\";\r\nimport \"./AttestationPartyStorageAdapter.sol\";\r\nimport \"./AttestationPartyStorage.sol\";\r\n\r\ncontract KimlicContractsContext is Ownable {\r\n    \r\n    /// public attributes ///\r\n\r\n    /// private attributes ///\r\n    bytes32 private accountStorageAdapterKey;\r\n    bytes32 private kimlicTokenKey;\r\n    bytes32 private verificationContractFactoryKey;\r\n    bytes32 private provisioningPriceKey;\r\n    bytes32 private provisioningContractFactoryKey;\r\n    bytes32 private communityTokenWalletAddressKey;\r\n    bytes32 private rewardingContractKey;\r\n    bytes32 private accountStorageKey;\r\n    bytes32 private relyingPartyStorageAdapterKey;\r\n    bytes32 private relyingPartyStorageKey;\r\n    bytes32 private attestationPartyStorageAdapterKey;\r\n    bytes32 private attestationPartyStorageKey;\r\n    KimlicContextStorage internal _storage;\r\n\r\n    /// constructors ///\r\n    constructor(address storageAddress) public Ownable() {\r\n        _storage = KimlicContextStorage(storageAddress);\r\n\r\n        accountStorageAdapterKey = keccak256(abi.encode(\"accountStorageAdapter\"));\r\n        kimlicTokenKey = keccak256(abi.encode(\"kimlicToken\"));\r\n        verificationContractFactoryKey = keccak256(abi.encode(\"verificationContractFactory\"));\r\n        provisioningPriceKey = keccak256(abi.encode(\"provisioningPrice\"));\r\n        provisioningContractFactoryKey = keccak256(abi.encode(\"provisioningContractFactory\"));\r\n        communityTokenWalletAddressKey = keccak256(abi.encode(\"communityTokenWalletAddress\"));\r\n        rewardingContractKey = keccak256(abi.encode(\"rewardingContract\"));\r\n        accountStorageKey = keccak256(abi.encode(\"accountStorage\"));\r\n        relyingPartyStorageAdapterKey = keccak256(abi.encode(\"relyingPartyStorageAdapter\"));\r\n        relyingPartyStorageKey = keccak256(abi.encode(\"relyingPartyStorage\"));\r\n        attestationPartyStorageAdapterKey = keccak256(abi.encode(\"attestationPartyStorageAdapter\"));\r\n        attestationPartyStorageKey = keccak256(abi.encode(\"attestationPartyStorage\"));\r\n    }\r\n\r\n    /// public methods ///\r\n\r\n    /* Getters */\r\n    function getAccountStorageAdapter() public view returns(AccountStorageAdapter accountStorageAdapter) {\r\n        accountStorageAdapter = AccountStorageAdapter(_storage.getAddress(accountStorageAdapterKey));\r\n    }\r\n\r\n    function getKimlicToken() public view returns(KimlicToken kimlicToken) {\r\n        kimlicToken = KimlicToken(_storage.getAddress(kimlicTokenKey));\r\n    }\r\n\r\n    function getVerificationContractFactory() public view returns(VerificationContractFactory verificationContractFactory) {\r\n        verificationContractFactory = VerificationContractFactory(_storage.getAddress(verificationContractFactoryKey));\r\n    }\r\n\r\n    function getProvisioningPrice() public view returns(ProvisioningPrice provisioningPrice) {\r\n        provisioningPrice = ProvisioningPrice(_storage.getAddress(provisioningPriceKey));\r\n    }\r\n\r\n    function getProvisioningContractFactory() public view returns(ProvisioningContractFactory provisioningContractFactory) {\r\n        provisioningContractFactory = ProvisioningContractFactory(_storage.getAddress(provisioningContractFactoryKey));\r\n    }\r\n\r\n    function getCommunityTokenWalletAddress() public view returns(address communityTokenWalletAddress) {\r\n        communityTokenWalletAddress = _storage.getAddress(communityTokenWalletAddressKey);\r\n    }\r\n\r\n    function getRewardingContract() public view returns(RewardingContract rewardingContract) {\r\n        rewardingContract = RewardingContract(_storage.getAddress(rewardingContractKey));\r\n    }\r\n\r\n    function getAccountStorage() public view returns(AccountStorage accountStorage) {\r\n        accountStorage = AccountStorage(_storage.getAddress(accountStorageKey));\r\n    }\r\n\r\n    function getRelyingPartyStorageAdapter() public view returns(RelyingPartyStorageAdapter relyingPartyStorageAdapter) {\r\n        relyingPartyStorageAdapter = RelyingPartyStorageAdapter(_storage.getAddress(relyingPartyStorageAdapterKey));\r\n    }\r\n\r\n    function getRelyingPartyStorage() public view returns(RelyingPartyStorage relyingPartyStorage) {\r\n        relyingPartyStorage = RelyingPartyStorage(_storage.getAddress(relyingPartyStorageKey));\r\n    }\r\n\r\n    function getAttestationPartyStorageAdapter() public view returns(AttestationPartyStorageAdapter attestationPartyStorageAdapter) {\r\n        attestationPartyStorageAdapter = AttestationPartyStorageAdapter(_storage.getAddress(attestationPartyStorageAdapterKey));\r\n    }\r\n\r\n    function getAttestationPartyStorage() public view returns(AttestationPartyStorage attestationPartyStorage) {\r\n        attestationPartyStorage = AttestationPartyStorage(_storage.getAddress(attestationPartyStorageKey));\r\n    }\r\n\r\n\r\n    /* Setters */\r\n    function setAccountStorageAdapter(address accountStorageAdapterAddress) public onlyOwner() {\r\n        _storage.setAddress(accountStorageAdapterKey, accountStorageAdapterAddress);\r\n    }\r\n\r\n    function setKimlicToken(address kimlicTokenAddress) public onlyOwner() {\r\n        _storage.setAddress(kimlicTokenKey, kimlicTokenAddress);\r\n    }\r\n\r\n    function setVerificationContractFactory(address verificationContractFactoryAddress) public onlyOwner() {\r\n        _storage.setAddress(verificationContractFactoryKey, verificationContractFactoryAddress);\r\n    }\r\n\r\n    function setProvisioningPrice(address provisioningPriceAddress) public onlyOwner() {\r\n        _storage.setAddress(provisioningPriceKey, provisioningPriceAddress);\r\n    }\r\n\r\n    function setProvisioningContractFactory(address provisioningContractFactoryAddress) public onlyOwner() {\r\n        _storage.setAddress(provisioningContractFactoryKey, provisioningContractFactoryAddress);\r\n    }\r\n\r\n    function setCommunityTokenWalletAddress(address communityTokenWalletAddressAddress) public onlyOwner() {\r\n        _storage.setAddress(communityTokenWalletAddressKey, communityTokenWalletAddressAddress);\r\n    }\r\n\r\n    function setRewardingContract(address rewardingContractAddress) public onlyOwner() {\r\n        _storage.setAddress(rewardingContractKey, rewardingContractAddress);\r\n    }\r\n\r\n    function setAccountStorage(address accountStorageAddress) public onlyOwner() {\r\n        _storage.setAddress(accountStorageKey, accountStorageAddress);\r\n    }\r\n    \r\n    function setRelyingPartyStorageAdapter(address relyingPartyStorageAdapterAddress) public {\r\n        _storage.setAddress(relyingPartyStorageAdapterKey, relyingPartyStorageAdapterAddress);\r\n    }\r\n\r\n    function setRelyingPartyStorage(address relyingPartyStorageAddress) public {\r\n        _storage.setAddress(relyingPartyStorageKey, relyingPartyStorageAddress);\r\n    }\r\n\r\n    function setAttestationPartyStorageAdapter(address attestationPartyStorageAdapterAddress) public {\r\n        _storage.setAddress(attestationPartyStorageAdapterKey, attestationPartyStorageAdapterAddress);\r\n    }\r\n\r\n    function setAttestationPartyStorage(address attestationPartyStorageAddress) public {\r\n        _storage.setAddress(attestationPartyStorageKey, attestationPartyStorageAddress);\r\n    }\r\n}",
  "sourcePath": "C:\\work\\quorum.smart-contracts\\contracts\\KimlicContractsContext.sol",
  "compiler": {
    "name": "solc",
    "version": "0.4.23+commit.124ca40d.Emscripten.clang"
  },
  "schemaVersion": "2.0.0",
  "updatedAt": "2018-06-26T09:55:44.953Z"
}