{
  "contractName": "ProvisioningContractFactory",
  "abi": [
    {
      "constant": true,
      "inputs": [],
      "name": "attestationPartyInterestPercent",
      "outputs": [
        {
          "name": "",
          "type": "uint8"
        }
      ],
      "payable": false,
      "stateMutability": "view",
      "type": "function"
    },
    {
      "constant": true,
      "inputs": [],
      "name": "communityTokenWalletInterestPercent",
      "outputs": [
        {
          "name": "",
          "type": "uint8"
        }
      ],
      "payable": false,
      "stateMutability": "view",
      "type": "function"
    },
    {
      "constant": true,
      "inputs": [
        {
          "name": "",
          "type": "address"
        }
      ],
      "name": "createdContracts",
      "outputs": [
        {
          "name": "",
          "type": "bool"
        }
      ],
      "payable": false,
      "stateMutability": "view",
      "type": "function"
    },
    {
      "constant": true,
      "inputs": [],
      "name": "accountInterestPercent",
      "outputs": [
        {
          "name": "",
          "type": "uint8"
        }
      ],
      "payable": false,
      "stateMutability": "view",
      "type": "function"
    },
    {
      "constant": true,
      "inputs": [],
      "name": "tokensLockPeriod",
      "outputs": [
        {
          "name": "",
          "type": "uint256"
        }
      ],
      "payable": false,
      "stateMutability": "view",
      "type": "function"
    },
    {
      "constant": true,
      "inputs": [],
      "name": "coOwnerInterestPercent",
      "outputs": [
        {
          "name": "",
          "type": "uint8"
        }
      ],
      "payable": false,
      "stateMutability": "view",
      "type": "function"
    },
    {
      "inputs": [
        {
          "name": "contextStorage",
          "type": "address"
        }
      ],
      "payable": false,
      "stateMutability": "nonpayable",
      "type": "constructor"
    },
    {
      "constant": false,
      "inputs": [
        {
          "name": "account",
          "type": "address"
        },
        {
          "name": "accountFieldName",
          "type": "uint8"
        },
        {
          "name": "index",
          "type": "uint256"
        },
        {
          "name": "key",
          "type": "string"
        }
      ],
      "name": "createProvisioningContract",
      "outputs": [
        {
          "name": "createdContract",
          "type": "address"
        }
      ],
      "payable": false,
      "stateMutability": "nonpayable",
      "type": "function"
    },
    {
      "constant": false,
      "inputs": [
        {
          "name": "communityTokenWallet",
          "type": "uint8"
        },
        {
          "name": "coOwner",
          "type": "uint8"
        },
        {
          "name": "attestationParty",
          "type": "uint8"
        },
        {
          "name": "account",
          "type": "uint8"
        }
      ],
      "name": "setInterestsPercent",
      "outputs": [],
      "payable": false,
      "stateMutability": "nonpayable",
      "type": "function"
    },
    {
      "constant": false,
      "inputs": [
        {
          "name": "lockPeriod",
          "type": "uint256"
        }
      ],
      "name": "setTokensLockPeriod",
      "outputs": [],
      "payable": false,
      "stateMutability": "nonpayable",
      "type": "function"
    },
    {
      "constant": true,
      "inputs": [
        {
          "name": "key",
          "type": "string"
        }
      ],
      "name": "getProvisioningContract",
      "outputs": [
        {
          "name": "",
          "type": "address"
        }
      ],
      "payable": false,
      "stateMutability": "view",
      "type": "function"
    }
  ],
  "bytecode": "0x608060405234801561001057600080fd5b50604051602080611dec833981016040525160008054600160a060020a03909216600160a060020a0319909216919091179055611d9a806100526000396000f30060806040526004361061008a5763ffffffff60e060020a6000350416630cfb6239811461008f57806315762f44146100ba5780633b562a6d146100cf5780633f6a6930146101045780634fce425b146101925780635b47d27f146101c15780636765df71146101d657806396b1f071146101fd578063baeaa31114610212578063c50ce9bc1461022a575b600080fd5b34801561009b57600080fd5b506100a4610283565b6040805160ff9092168252519081900360200190f35b3480156100c657600080fd5b506100a4610291565b3480156100db57600080fd5b506100f0600160a060020a036004351661029a565b604080519115158252519081900360200190f35b34801561011057600080fd5b50604080516020601f60643560048181013592830184900484028501840190955281845261017694600160a060020a038135169460ff60248035919091169560443595369560849493019181908401838280828437509497506102af9650505050505050565b60408051600160a060020a039092168252519081900360200190f35b34801561019e57600080fd5b506101bf60ff60043581169060243581169060443581169060643516610690565b005b3480156101cd57600080fd5b506100a46106f5565b3480156101e257600080fd5b506101eb610704565b60408051918252519081900360200190f35b34801561020957600080fd5b506100a461070a565b34801561021e57600080fd5b506101bf60043561071a565b34801561023657600080fd5b506040805160206004803580820135601f810184900484028501840190955284845261017694369492936024939284019190819084018382808284375094975061071f9650505050505050565b600254610100900460ff1681565b60025460ff1681565b60016020526000908152604090205460ff1681565b6000806000806102bd610790565b925082600160a060020a031663ef835a0b6040518163ffffffff1660e060020a028152600401602060405180830381600087803b1580156102fd57600080fd5b505af1158015610311573d6000803e3d6000fd5b505050506040513d602081101561032757600080fd5b50516040517f37f1e7f2000000000000000000000000000000000000000000000000000000008152600160a060020a03909116906337f1e7f29089906004018082600581111561037357fe5b60ff168152602001915050602060405180830381600087803b15801561039857600080fd5b505af11580156103ac573d6000803e3d6000fd5b505050506040513d60208110156103c257600080fd5b5051600054909250600160a060020a0316888888856103df610815565b600160a060020a038087168252851660208201526040810184600581111561040357fe5b60ff16815260200183815260200182815260200195505050505050604051809103906000f08015801561043a573d6000803e3d6000fd5b50604080517ff2fde38b0000000000000000000000000000000000000000000000000000000081523360048201529051919550600160a060020a0386169163f2fde38b9160248082019260009290919082900301818387803b15801561049f57600080fd5b505af11580156104b3573d6000803e3d6000fd5b505050600160a060020a038516600090815260016020818152604092839020805460ff19169092179091559051875187945084935060049289929182918401908083835b602083106105165780518252601f1990920191602091820191016104f7565b51815160209384036101000a6000190180199092169116179052920194855250604080519485900382018520805473ffffffffffffffffffffffffffffffffffffffff1916600160a060020a039788161790557f63badc6e00000000000000000000000000000000000000000000000000000000855251948816946363badc6e94600480820195509293509091908290030181600087803b1580156105ba57600080fd5b505af11580156105ce573d6000803e3d6000fd5b505050506040513d60208110156105e457600080fd5b5051604080517f23b872dd000000000000000000000000000000000000000000000000000000008152336004820152600160a060020a03848116602483015260448201869052915191909216916323b872dd9160648083019260209291908290030181600087803b15801561065857600080fd5b505af115801561066c573d6000803e3d6000fd5b505050506040513d602081101561068257600080fd5b509398975050505050505050565b606460ff8584018301850116146106a657600080fd5b6002805460ff191660ff9586161761ff001916610100938616939093029290921762ff0000191662010000918516919091021763ff000000191663010000009290931691909102919091179055565b60025462010000900460ff1681565b60035481565b6002546301000000900460ff1681565b600355565b60006004826040518082805190602001908083835b602083106107535780518252601f199092019160209182019101610734565b51815160209384036101000a6000190180199092169116179052920194855250604051938490030190922054600160a060020a0316949350505050565b60008060009054906101000a9004600160a060020a0316600160a060020a031663127f0f076040518163ffffffff1660e060020a028152600401602060405180830381600087803b1580156107e457600080fd5b505af11580156107f8573d6000803e3d6000fd5b505050506040513d602081101561080e57600080fd5b5051919050565b6040516115498061082683390190560060806040523480156200001157600080fd5b5060405160a08062001549833981016040908152815160208301519183015160608401516080909401516000805433600160a060020a031991821617825560018054909116600160a060020a03861617905592949192806200007b640100000000620001fb810204565b915081600160a060020a031663b819723a6040518163ffffffff167c0100000000000000000000000000000000000000000000000000000000028152600401602060405180830381600087803b158015620000d557600080fd5b505af1158015620000ea573d6000803e3d6000fd5b505050506040513d60208110156200010157600080fd5b5051905033600160a060020a038216146200011b57600080fd5b80600160a060020a0316636765df716040518163ffffffff167c0100000000000000000000000000000000000000000000000000000000028152600401602060405180830381600087803b1580156200017357600080fd5b505af115801562000188573d6000803e3d6000fd5b505050506040513d60208110156200019f57600080fd5b5051610e1002420160045560038054600160a060020a031916600160a060020a03881617905560078390556005805486919060ff191660018383811115620001e357fe5b02179055505050600691909155506200028e92505050565b600154604080517f127f0f070000000000000000000000000000000000000000000000000000000081529051600092600160a060020a03169163127f0f0791600480830192602092919082900301818787803b1580156200025b57600080fd5b505af115801562000270573d6000803e3d6000fd5b505050506040513d60208110156200028757600080fd5b5051919050565b6112ab806200029e6000396000f3006080604052600436106100895763ffffffff60e060020a6000350416629aa2aa811461008e578063200d2ed2146100b55780633bc5de30146100ee5780633ccfd60b146102025780634d75370c146102195780635dab24201461024a578063715018a61461025f5780638da5cb5b14610274578063df610b5314610289578063f2fde38b1461029e575b600080fd5b34801561009a57600080fd5b506100a36102bf565b60408051918252519081900360200190f35b3480156100c157600080fd5b506100ca6102c5565b604051808260028111156100da57fe5b60ff16815260200191505060405180910390f35b3480156100fa57600080fd5b506101036102e6565b6040805184151591810191909152600160a060020a03831660608201526080810182905260a08082528651908201528551819060208083019160c08401918a019080838360005b8381101561016257818101518382015260200161014a565b50505050905090810190601f16801561018f5780820380516001836020036101000a031916815260200191505b50838103825287518152875160209182019189019080838360005b838110156101c25781810151838201526020016101aa565b50505050905090810190601f1680156101ef5780820380516001836020036101000a031916815260200191505b5097505050505050505060405180910390f35b34801561020e57600080fd5b50610217610605565b005b34801561022557600080fd5b5061022e610826565b60408051600160a060020a039092168252519081900360200190f35b34801561025657600080fd5b5061022e610835565b34801561026b57600080fd5b50610217610844565b34801561028057600080fd5b5061022e6108b0565b34801561029557600080fd5b506102176108bf565b3480156102aa57600080fd5b50610217600160a060020a03600435166108fe565b60045481565b60035474010000000000000000000000000000000000000000900460ff1681565b600080546060918291819081908190600160a060020a0316331461030957600080fd5b600160035474010000000000000000000000000000000000000000900460ff16600281111561033457fe5b1461033e57600080fd5b610346610992565b600160a060020a03166314c6f21d6040518163ffffffff1660e060020a028152600401602060405180830381600087803b15801561038357600080fd5b505af1158015610397573d6000803e3d6000fd5b505050506040513d60208110156103ad57600080fd5b5051600354600580546006546040517f617aaa11000000000000000000000000000000000000000000000000000000008152600160a060020a03948516600482018181529697509487169563617aaa11959460ff90941693909160240190849081111561041657fe5b60ff1681526020018281526020019350505050600060405180830381600087803b15801561044357600080fd5b505af1158015610457573d6000803e3d6000fd5b505050506040513d6000823e601f3d908101601f19168201604090815281101561048057600080fd5b81019080805164010000000081111561049857600080fd5b820160208101848111156104ab57600080fd5b81516401000000008111828201871017156104c557600080fd5b505092919060200180516401000000008111156104e157600080fd5b820160208101848111156104f457600080fd5b815164010000000081118282018710171561050e57600080fd5b5050929190505050809650819750505080600160a060020a031663a7075d9e600360009054906101000a9004600160a060020a0316600560009054906101000a900460ff166006546040518463ffffffff1660e060020a0281526004018084600160a060020a0316600160a060020a0316815260200183600581111561059057fe5b60ff1681526020018281526020019350505050606060405180830381600087803b1580156105bd57600080fd5b505af11580156105d1573d6000803e3d6000fd5b505050506040513d60608110156105e757600080fd5b50805160208201516040909201519798969790969195509350915050565b60008054600160a060020a0316331461061d57600080fd5b60045442101580156106575750600060035474010000000000000000000000000000000000000000900460ff16600281111561065557fe5b145b151561066257600080fd5b6003805474ff000000000000000000000000000000000000000019167402000000000000000000000000000000000000000017905561069f610992565b600160a060020a03166363badc6e6040518163ffffffff1660e060020a028152600401602060405180830381600087803b1580156106dc57600080fd5b505af11580156106f0573d6000803e3d6000fd5b505050506040513d602081101561070657600080fd5b505160008054604080517f70a082310000000000000000000000000000000000000000000000000000000081523060048201529051939450600160a060020a038086169463a9059cbb94939091169285926370a082319260248083019360209383900390910190829087803b15801561077e57600080fd5b505af1158015610792573d6000803e3d6000fd5b505050506040513d60208110156107a857600080fd5b50516040805160e060020a63ffffffff8616028152600160a060020a03909316600484015260248301919091525160448083019260209291908290030181600087803b1580156107f757600080fd5b505af115801561080b573d6000803e3d6000fd5b505050506040513d602081101561082157600080fd5b505050565b600254600160a060020a031681565b600354600160a060020a031681565b600054600160a060020a0316331461085b57600080fd5b60008054604051600160a060020a03909116917ff8df31144d9c2f0f6b59d69b8b98abd5459d07f2742c4df920b25aae33c6482091a26000805473ffffffffffffffffffffffffffffffffffffffff19169055565b600054600160a060020a031681565b6003805474ff00000000000000000000000000000000000000001916740100000000000000000000000000000000000000001790556108fc610a22565b565b600054600160a060020a0316331461091557600080fd5b600160a060020a038116151561092a57600080fd5b60008054604051600160a060020a03808516939216917f8be0079c531659141344cd1fd0a4f28419497f9722a3daafe3b4186f6b6457e091a36000805473ffffffffffffffffffffffffffffffffffffffff1916600160a060020a0392909216919091179055565b600154604080517f127f0f070000000000000000000000000000000000000000000000000000000081529051600092600160a060020a03169163127f0f0791600480830192602092919082900301818787803b1580156109f157600080fd5b505af1158015610a05573d6000803e3d6000fd5b505050506040513d6020811015610a1b57600080fd5b5051919050565b6000806000806000806000806000806000610a3b610992565b9a508a600160a060020a03166314c6f21d6040518163ffffffff1660e060020a028152600401602060405180830381600087803b158015610a7b57600080fd5b505af1158015610a8f573d6000803e3d6000fd5b505050506040513d6020811015610aa557600080fd5b5051600354600580546006546040517fcfbf4030000000000000000000000000000000000000000000000000000000008152600160a060020a0394851660048201818152959096169563cfbf403095909460ff909416939091602401908490811115610b0d57fe5b60ff1681526020018281526020019350505050602060405180830381600087803b158015610b3a57600080fd5b505af1158015610b4e573d6000803e3d6000fd5b505050506040513d6020811015610b6457600080fd5b5051604080517fd6d34c7c0000000000000000000000000000000000000000000000000000000081529051919b508b9a50600160a060020a038b169163d6d34c7c916004808201926020929091908290030181600087803b158015610bc857600080fd5b505af1158015610bdc573d6000803e3d6000fd5b505050506040513d6020811015610bf257600080fd5b5051604080517f8da5cb5b0000000000000000000000000000000000000000000000000000000081529051919950600160a060020a038b1691638da5cb5b916004808201926020929091908290030181600087803b158015610c5357600080fd5b505af1158015610c67573d6000803e3d6000fd5b505050506040513d6020811015610c7d57600080fd5b5051604080517fb819723a0000000000000000000000000000000000000000000000000000000081529051919850600160a060020a038d169163b819723a916004808201926020929091908290030181600087803b158015610cde57600080fd5b505af1158015610cf2573d6000803e3d6000fd5b505050506040513d6020811015610d0857600080fd5b5051604080517f5b47d27f0000000000000000000000000000000000000000000000000000000081529051919750606491600160a060020a03891691635b47d27f9160048083019260209291908290030181600087803b158015610d6b57600080fd5b505af1158015610d7f573d6000803e3d6000fd5b505050506040513d6020811015610d9557600080fd5b505160075460ff90911602811515610da957fe5b049450606486600160a060020a03166396b1f0716040518163ffffffff1660e060020a028152600401602060405180830381600087803b158015610dec57600080fd5b505af1158015610e00573d6000803e3d6000fd5b505050506040513d6020811015610e1657600080fd5b505160075460ff90911602811515610e2a57fe5b049350606486600160a060020a03166315762f446040518163ffffffff1660e060020a028152600401602060405180830381600087803b158015610e6d57600080fd5b505af1158015610e81573d6000803e3d6000fd5b505050506040513d6020811015610e9757600080fd5b505160075460ff90911602811515610eab57fe5b049250606486600160a060020a0316630cfb62396040518163ffffffff1660e060020a028152600401602060405180830381600087803b158015610eee57600080fd5b505af1158015610f02573d6000803e3d6000fd5b505050506040513d6020811015610f1857600080fd5b505160075460ff90911602811515610f2c57fe5b0491508a600160a060020a03166363badc6e6040518163ffffffff1660e060020a028152600401602060405180830381600087803b158015610f6d57600080fd5b505af1158015610f81573d6000803e3d6000fd5b505050506040513d6020811015610f9757600080fd5b5051600354604080517fa9059cbb000000000000000000000000000000000000000000000000000000008152600160a060020a0392831660048201526024810189905290519293509083169163a9059cbb916044808201926020929091908290030181600087803b15801561100b57600080fd5b505af115801561101f573d6000803e3d6000fd5b505050506040513d602081101561103557600080fd5b5050604080517fa9059cbb000000000000000000000000000000000000000000000000000000008152600160a060020a038a811660048301526024820187905291519183169163a9059cbb916044808201926020929091908290030181600087803b1580156110a357600080fd5b505af11580156110b7573d6000803e3d6000fd5b505050506040513d60208110156110cd57600080fd5b5050604080517f09ccc1db0000000000000000000000000000000000000000000000000000000081529051600160a060020a038084169263a9059cbb92918f16916309ccc1db916004808201926020929091908290030181600087803b15801561113657600080fd5b505af115801561114a573d6000803e3d6000fd5b505050506040513d602081101561116057600080fd5b50516040805160e060020a63ffffffff8516028152600160a060020a039092166004830152602482018790525160448083019260209291908290030181600087803b1580156111ae57600080fd5b505af11580156111c2573d6000803e3d6000fd5b505050506040513d60208110156111d857600080fd5b5050604080517fa9059cbb000000000000000000000000000000000000000000000000000000008152600160a060020a0389811660048301526024820185905291519183169163a9059cbb916044808201926020929091908290030181600087803b15801561124657600080fd5b505af115801561125a573d6000803e3d6000fd5b505050506040513d602081101561127057600080fd5b505050505050505050505050505600a165627a7a72305820abd068013ff9724aed437a8beb4eb5f56b74800e3ebabfdfa35151fae69d27e90029a165627a7a72305820338c5d5c544c7e8874129346ce41fdd8badb38ad696cea123c08f264333d30610029",
  "source": "pragma solidity ^0.4.23;\r\n\r\nimport \"./KimlicContractsContext.sol\";\r\nimport \"./ProvisioningContract.sol\";\r\nimport \"./WithKimlicContext.sol\";\r\n\r\ncontract ProvisioningContractFactory is WithKimlicContext {\r\n    /// public attributes ///\r\n    mapping(address=>bool) public createdContracts;\r\n    uint8 public communityTokenWalletInterestPercent;\r\n    uint8 public attestationPartyInterestPercent;\r\n    uint8 public accountInterestPercent;\r\n    uint8 public coOwnerInterestPercent;\r\n    uint public tokensLockPeriod;\r\n    mapping(string=>address) private contracts;\r\n    \r\n    /// private attributes ///\r\n\r\n    /// Constructors ///\r\n    constructor (address contextStorage) public WithKimlicContext(contextStorage) {\r\n    }\r\n\r\n    /// public methods ///\r\n    function createProvisioningContract(address account, AccountStorageAdapter.AccountFieldName accountFieldName, uint index, string key) \r\n            public returns(ProvisioningContract createdContract) {\r\n        \r\n        KimlicContractsContext context = getContext();\r\n        uint reward = context.getProvisioningPrice().getPrice(accountFieldName);\r\n        createdContract = new ProvisioningContract(_storage, account, accountFieldName, index, reward);\r\n        createdContract.transferOwnership(msg.sender);\r\n        address createdContractAddress = address(createdContract);\r\n        createdContracts[createdContractAddress] = true;\r\n        contracts[key] = createdContractAddress;\r\n\r\n        context.getKimlicToken().transferFrom(msg.sender, createdContractAddress, reward);\r\n    }\r\n\r\n    function setInterestsPercent(uint8 communityTokenWallet, uint8 coOwner, uint8 attestationParty, uint8 account) public {\r\n        require((communityTokenWallet + attestationParty + account + coOwner) == 100);\r\n\r\n        communityTokenWalletInterestPercent = communityTokenWallet;\r\n        attestationPartyInterestPercent = attestationParty;\r\n        accountInterestPercent = account;\r\n        coOwnerInterestPercent = coOwner;\r\n    }\r\n\r\n    function setTokensLockPeriod(uint lockPeriod) public {\r\n        tokensLockPeriod = lockPeriod;\r\n    }\r\n\r\n    function getProvisioningContract(string key) view public returns (address) {\r\n        return contracts[key];\r\n    }\r\n}",
  "sourcePath": "C:\\work\\quorum.smart-contracts\\contracts\\ProvisioningContractFactory.sol",
  "compiler": {
    "name": "solc",
    "version": "0.4.24+commit.e67f0147.Emscripten.clang"
  },
  "schemaVersion": "2.0.1",
  "updatedAt": "2018-06-26T13:41:58.492Z"
}