{
  "contractName": "ProvisioningPrice",
  "abi": [
    {
      "constant": false,
      "inputs": [],
      "name": "renounceOwnership",
      "outputs": [],
      "payable": false,
      "stateMutability": "nonpayable",
      "type": "function"
    },
    {
      "constant": true,
      "inputs": [],
      "name": "owner",
      "outputs": [
        {
          "name": "",
          "type": "address"
        }
      ],
      "payable": false,
      "stateMutability": "view",
      "type": "function"
    },
    {
      "constant": false,
      "inputs": [
        {
          "name": "newOwner",
          "type": "address"
        }
      ],
      "name": "transferOwnership",
      "outputs": [],
      "payable": false,
      "stateMutability": "nonpayable",
      "type": "function"
    },
    {
      "anonymous": false,
      "inputs": [
        {
          "indexed": true,
          "name": "previousOwner",
          "type": "address"
        }
      ],
      "name": "OwnershipRenounced",
      "type": "event"
    },
    {
      "anonymous": false,
      "inputs": [
        {
          "indexed": true,
          "name": "previousOwner",
          "type": "address"
        },
        {
          "indexed": true,
          "name": "newOwner",
          "type": "address"
        }
      ],
      "name": "OwnershipTransferred",
      "type": "event"
    },
    {
      "constant": false,
      "inputs": [
        {
          "name": "accountFieldName",
          "type": "uint8"
        },
        {
          "name": "price",
          "type": "uint256"
        }
      ],
      "name": "setPrice",
      "outputs": [],
      "payable": false,
      "stateMutability": "nonpayable",
      "type": "function"
    },
    {
      "constant": true,
      "inputs": [
        {
          "name": "accountFieldName",
          "type": "uint8"
        }
      ],
      "name": "getPrice",
      "outputs": [
        {
          "name": "price",
          "type": "uint256"
        }
      ],
      "payable": false,
      "stateMutability": "view",
      "type": "function"
    }
  ],
  "bytecode": "0x608060405260008054600160a060020a033316600160a060020a03199091161790556102d1806100306000396000f30060806040526004361061006c5763ffffffff7c010000000000000000000000000000000000000000000000000000000060003504166337f1e7f281146100715780636a00670b1461009e578063715018a6146100be5780638da5cb5b146100d3578063f2fde38b14610104575b600080fd5b34801561007d57600080fd5b5061008c60ff60043516610125565b60408051918252519081900360200190f35b3480156100aa57600080fd5b506100bc60ff6004351660243561014d565b005b3480156100ca57600080fd5b506100bc61018e565b3480156100df57600080fd5b506100e86101fe565b60408051600160a060020a039092168252519081900360200190f35b34801561011057600080fd5b506100bc600160a060020a036004351661020d565b60006001600083600581111561013757fe5b8152602001908152602001600020549050919050565b60005433600160a060020a0390811691161461016857600080fd5b806001600084600581111561017957fe5b81526020810191909152604001600020555050565b60005433600160a060020a039081169116146101a957600080fd5b60008054604051600160a060020a03909116917ff8df31144d9c2f0f6b59d69b8b98abd5459d07f2742c4df920b25aae33c6482091a26000805473ffffffffffffffffffffffffffffffffffffffff19169055565b600054600160a060020a031681565b60005433600160a060020a0390811691161461022857600080fd5b600160a060020a038116151561023d57600080fd5b60008054604051600160a060020a03808516939216917f8be0079c531659141344cd1fd0a4f28419497f9722a3daafe3b4186f6b6457e091a36000805473ffffffffffffffffffffffffffffffffffffffff1916600160a060020a03929092169190911790555600a165627a7a72305820b773282d83993793394534a97569961d35135966d1064edff02874b38e161ec10029",
  "source": "pragma solidity ^0.4.23;\r\n\r\nimport \"./openzeppelin-solidity/Ownable.sol\";\r\nimport \"./AccountStorageAdapter.sol\";\r\n\r\ncontract ProvisioningPrice is Ownable {\r\n\r\n    /// private attributes ///\r\n    mapping (uint=>uint) private _priceMap;\r\n\r\n    /// public methods ///\r\n    function setPrice(AccountStorageAdapter.AccountFieldName accountFieldName, uint price) public onlyOwner() {\r\n        _priceMap[uint(accountFieldName)] = price;\r\n    }\r\n\r\n    function getPrice(AccountStorageAdapter.AccountFieldName accountFieldName) public view returns (uint price) {\r\n        price = _priceMap[uint(accountFieldName)];\r\n    }\r\n}",
  "sourcePath": "C:\\work\\quorum.smart-contracts\\contracts\\ProvisioningPrice.sol",
  "compiler": {
    "name": "solc",
    "version": "0.4.23+commit.124ca40d.Emscripten.clang"
  },
  "schemaVersion": "2.0.0",
  "updatedAt": "2018-06-26T09:55:44.943Z"
}