{
  "contractName": "RelyingPartyStorageAdapter",
  "abi": [
    {
      "constant": false,
      "inputs": [
        {
          "name": "party",
          "type": "address"
        },
        {
          "name": "value",
          "type": "string"
        }
      ],
      "name": "setBusinessArea",
      "outputs": [],
      "payable": false,
      "stateMutability": "nonpayable",
      "type": "function"
    },
    {
      "constant": false,
      "inputs": [
        {
          "name": "party",
          "type": "address"
        },
        {
          "name": "value",
          "type": "string"
        }
      ],
      "name": "setDataPrivacyUrl",
      "outputs": [],
      "payable": false,
      "stateMutability": "nonpayable",
      "type": "function"
    },
    {
      "constant": true,
      "inputs": [
        {
          "name": "party",
          "type": "address"
        }
      ],
      "name": "getShortName",
      "outputs": [
        {
          "name": "",
          "type": "string"
        }
      ],
      "payable": false,
      "stateMutability": "view",
      "type": "function"
    },
    {
      "constant": true,
      "inputs": [
        {
          "name": "party",
          "type": "address"
        }
      ],
      "name": "getLegalName",
      "outputs": [
        {
          "name": "",
          "type": "string"
        }
      ],
      "payable": false,
      "stateMutability": "view",
      "type": "function"
    },
    {
      "constant": false,
      "inputs": [
        {
          "name": "party",
          "type": "address"
        },
        {
          "name": "value",
          "type": "string"
        }
      ],
      "name": "setLegalResidenceCountry",
      "outputs": [],
      "payable": false,
      "stateMutability": "nonpayable",
      "type": "function"
    },
    {
      "constant": false,
      "inputs": [
        {
          "name": "party",
          "type": "address"
        },
        {
          "name": "value",
          "type": "string"
        }
      ],
      "name": "setWebsite",
      "outputs": [],
      "payable": false,
      "stateMutability": "nonpayable",
      "type": "function"
    },
    {
      "constant": true,
      "inputs": [
        {
          "name": "party",
          "type": "address"
        }
      ],
      "name": "getDataPrivacyUrl",
      "outputs": [
        {
          "name": "",
          "type": "string"
        }
      ],
      "payable": false,
      "stateMutability": "view",
      "type": "function"
    },
    {
      "constant": true,
      "inputs": [
        {
          "name": "party",
          "type": "address"
        }
      ],
      "name": "getLegalResidenceCountry",
      "outputs": [
        {
          "name": "",
          "type": "string"
        }
      ],
      "payable": false,
      "stateMutability": "view",
      "type": "function"
    },
    {
      "constant": true,
      "inputs": [
        {
          "name": "party",
          "type": "address"
        }
      ],
      "name": "getWebsite",
      "outputs": [
        {
          "name": "",
          "type": "string"
        }
      ],
      "payable": false,
      "stateMutability": "view",
      "type": "function"
    },
    {
      "constant": false,
      "inputs": [
        {
          "name": "party",
          "type": "address"
        },
        {
          "name": "value",
          "type": "string"
        }
      ],
      "name": "setLegalName",
      "outputs": [],
      "payable": false,
      "stateMutability": "nonpayable",
      "type": "function"
    },
    {
      "constant": true,
      "inputs": [
        {
          "name": "party",
          "type": "address"
        }
      ],
      "name": "getBusinessArea",
      "outputs": [
        {
          "name": "",
          "type": "string"
        }
      ],
      "payable": false,
      "stateMutability": "view",
      "type": "function"
    },
    {
      "constant": false,
      "inputs": [
        {
          "name": "party",
          "type": "address"
        },
        {
          "name": "value",
          "type": "string"
        }
      ],
      "name": "setShortName",
      "outputs": [],
      "payable": false,
      "stateMutability": "nonpayable",
      "type": "function"
    },
    {
      "inputs": [
        {
          "name": "contextStorage",
          "type": "address"
        }
      ],
      "payable": false,
      "stateMutability": "nonpayable",
      "type": "constructor"
    }
  ],
  "bytecode": "0x608060405234801561001057600080fd5b50604051602080610c4d833981016040525160008054600160a060020a03909216600160a060020a0319909216919091179055610bfb806100526000396000f3006080604052600436106100a05763ffffffff60e060020a60003504166310f15c9b81146100a55780631137de0c1461010e5780631ebd3a591461017557806333114b371461020b5780633c26cea61461022c5780634cfbc0b6146102935780636e16634d146102fa578063a66fb3261461031b578063c05e9dec1461033c578063d611aa611461035d578063df864f0d146103c4578063e8b531a2146103e5575b600080fd5b3480156100b157600080fd5b5060408051602060046024803582810135601f810185900485028601850190965285855261010c958335600160a060020a031695369560449491939091019190819084018382808284375094975061044c9650505050505050565b005b34801561011a57600080fd5b5060408051602060046024803582810135601f810185900485028601850190965285855261010c958335600160a060020a03169536956044949193909101919081908401838280828437509497506104909650505050505050565b34801561018157600080fd5b50610196600160a060020a03600435166104d0565b6040805160208082528351818301528351919283929083019185019080838360005b838110156101d05781810151838201526020016101b8565b50505050905090810190601f1680156101fd5780820380516001836020036101000a031916815260200191505b509250505060405180910390f35b34801561021757600080fd5b50610196600160a060020a0360043516610517565b34801561023857600080fd5b5060408051602060046024803582810135601f810185900485028601850190965285855261010c958335600160a060020a03169536956044949193909101919081908401838280828437509497506105589650505050505050565b34801561029f57600080fd5b5060408051602060046024803582810135601f810185900485028601850190965285855261010c958335600160a060020a03169536956044949193909101919081908401838280828437509497506105989650505050505050565b34801561030657600080fd5b50610196600160a060020a03600435166105d8565b34801561032757600080fd5b50610196600160a060020a0360043516610619565b34801561034857600080fd5b50610196600160a060020a036004351661065a565b34801561036957600080fd5b5060408051602060046024803582810135601f810185900485028601850190965285855261010c958335600160a060020a031695369560449491939091019190819084018382808284375094975061069b9650505050505050565b3480156103d057600080fd5b50610196600160a060020a03600435166106db565b3480156103f157600080fd5b5060408051602060046024803582810135601f810185900485028601850190965285855261010c958335600160a060020a031695369560449491939091019190819084018382808284375094975061071c9650505050505050565b61048c82826040805190810160405280600c81526020017f627573696e657373417265610000000000000000000000000000000000000000815250610758565b5050565b61048c82826040805190810160405280600e81526020017f646174615072697661637955726c000000000000000000000000000000000000815250610758565b6060610511826040805190810160405280600981526020017f73686f72744e616d650000000000000000000000000000000000000000000000815250610927565b92915050565b6060610511826040805190810160405280600981526020017f6c6567616c4e616d650000000000000000000000000000000000000000000000815250610927565b61048c82826040805190810160405280601581526020017f6c6567616c5265736964656e6365436f756e7472790000000000000000000000815250610758565b61048c82826040805190810160405280600781526020017f7765627369746500000000000000000000000000000000000000000000000000815250610758565b6060610511826040805190810160405280600e81526020017f646174615072697661637955726c000000000000000000000000000000000000815250610927565b6060610511826040805190810160405280601581526020017f6c6567616c5265736964656e6365436f756e7472790000000000000000000000815250610927565b6060610511826040805190810160405280600781526020017f7765627369746500000000000000000000000000000000000000000000000000815250610927565b61048c82826040805190810160405280600981526020017f6c6567616c4e616d650000000000000000000000000000000000000000000000815250610758565b6060610511826040805190810160405280600c81526020017f627573696e657373417265610000000000000000000000000000000000000000815250610927565b61048c82826040805190810160405280600981526020017f73686f72744e616d6500000000000000000000000000000000000000000000008152505b606083826040516020018083600160a060020a0316600160a060020a0316815260200180602001828103825283818151815260200191508051906020019080838360005b838110156107b457818101518382015260200161079c565b50505050905090810190601f1680156107e15780820380516001836020036101000a031916815260200191505b5093505050506040516020818303038152906040529050610800610b03565b600160a060020a0316636e899550826040518082805190602001908083835b6020831061083e5780518252601f19909201916020918201910161081f565b51815160209384036101000a60001901801990921691161790526040805192909401829003822063ffffffff881660e060020a02835260048301818152602484019586528c5160448501528c519197508c96509493506064909201919085019080838360005b838110156108bc5781810151838201526020016108a4565b50505050905090810190601f1680156108e95780820380516001836020036101000a031916815260200191505b509350505050600060405180830381600087803b15801561090957600080fd5b505af115801561091d573d6000803e3d6000fd5b5050505050505050565b60608083836040516020018083600160a060020a0316600160a060020a0316815260200180602001828103825283818151815260200191508051906020019080838360005b8381101561098457818101518382015260200161096c565b50505050905090810190601f1680156109b15780820380516001836020036101000a031916815260200191505b50935050505060405160208183030381529060405290506109d0610b03565b600160a060020a031663986e791a826040518082805190602001908083835b60208310610a0e5780518252601f1990920191602091820191016109ef565b5181516020939093036101000a60001901801990911692169190911790526040805191909301819003812063ffffffff871660e060020a0282526004820152915160248084019550600094509092839003019050818387803b158015610a7357600080fd5b505af1158015610a87573d6000803e3d6000fd5b505050506040513d6000823e601f3d908101601f191682016040526020811015610ab057600080fd5b810190808051640100000000811115610ac857600080fd5b82016020810184811115610adb57600080fd5b8151640100000000811182820187101715610af557600080fd5b509098975050505050505050565b6000610b0d610b7b565b600160a060020a031663294cf9b06040518163ffffffff1660e060020a028152600401602060405180830381600087803b158015610b4a57600080fd5b505af1158015610b5e573d6000803e3d6000fd5b505050506040513d6020811015610b7457600080fd5b5051905090565b60008060009054906101000a9004600160a060020a0316600160a060020a031663127f0f076040518163ffffffff1660e060020a028152600401602060405180830381600087803b158015610b4a57600080fd00a165627a7a72305820452ce27d0225fbec3743ac24edcaf529827b9ce3f476317e456882d067a7909c0029",
  "source": "pragma solidity ^0.4.23;\r\n\r\n\r\nimport \"./BaseStorage.sol\";\r\nimport \"./WithKimlicContext.sol\";\r\nimport \"./KimlicContractsContext.sol\";\r\nimport \"./BasePartyStorageAdapter.sol\";\r\n\r\ncontract RelyingPartyStorageAdapter is BasePartyStorageAdapter {\r\n\r\n    /// private attributes ///\r\n\r\n    /// constructors ///\r\n    constructor (address contextStorage) public BasePartyStorageAdapter(contextStorage) {\r\n        \r\n    }\r\n\r\n    /// internal methods ///\r\n    function getStorage() view internal returns (BaseStorage) {\r\n        return getContext().getRelyingPartyStorage();\r\n    }\r\n    \r\n    /// Modifiers ///\r\n    modifier accessRestriction() {//TODO write restrictions\r\n        _;\r\n    }\r\n}",
  "sourcePath": "C:\\work\\quorum.smart-contracts\\contracts\\RelyingPartyStorageAdapter.sol",
  "compiler": {
    "name": "solc",
    "version": "0.4.23+commit.124ca40d.Emscripten.clang"
  },
  "schemaVersion": "2.0.0",
  "updatedAt": "2018-06-26T09:55:44.946Z"
}