{
  "contractName": "RewardingContract",
  "abi": [
    {
      "constant": true,
      "inputs": [],
      "name": "mielstone1Reward",
      "outputs": [
        {
          "name": "",
          "type": "uint256"
        }
      ],
      "payable": false,
      "stateMutability": "view",
      "type": "function"
    },
    {
      "constant": false,
      "inputs": [],
      "name": "renounceOwnership",
      "outputs": [],
      "payable": false,
      "stateMutability": "nonpayable",
      "type": "function"
    },
    {
      "constant": true,
      "inputs": [],
      "name": "owner",
      "outputs": [
        {
          "name": "",
          "type": "address"
        }
      ],
      "payable": false,
      "stateMutability": "view",
      "type": "function"
    },
    {
      "constant": true,
      "inputs": [],
      "name": "mielstone2Reward",
      "outputs": [
        {
          "name": "",
          "type": "uint256"
        }
      ],
      "payable": false,
      "stateMutability": "view",
      "type": "function"
    },
    {
      "constant": false,
      "inputs": [
        {
          "name": "newOwner",
          "type": "address"
        }
      ],
      "name": "transferOwnership",
      "outputs": [],
      "payable": false,
      "stateMutability": "nonpayable",
      "type": "function"
    },
    {
      "inputs": [
        {
          "name": "contextStorage",
          "type": "address"
        }
      ],
      "payable": false,
      "stateMutability": "nonpayable",
      "type": "constructor"
    },
    {
      "anonymous": false,
      "inputs": [
        {
          "indexed": true,
          "name": "previousOwner",
          "type": "address"
        }
      ],
      "name": "OwnershipRenounced",
      "type": "event"
    },
    {
      "anonymous": false,
      "inputs": [
        {
          "indexed": true,
          "name": "previousOwner",
          "type": "address"
        },
        {
          "indexed": true,
          "name": "newOwner",
          "type": "address"
        }
      ],
      "name": "OwnershipTransferred",
      "type": "event"
    },
    {
      "constant": false,
      "inputs": [
        {
          "name": "rewardAmount",
          "type": "uint256"
        }
      ],
      "name": "setMilestone1Reward",
      "outputs": [],
      "payable": false,
      "stateMutability": "nonpayable",
      "type": "function"
    },
    {
      "constant": false,
      "inputs": [
        {
          "name": "rewardAmount",
          "type": "uint256"
        }
      ],
      "name": "setMilestone2Reward",
      "outputs": [],
      "payable": false,
      "stateMutability": "nonpayable",
      "type": "function"
    },
    {
      "constant": false,
      "inputs": [
        {
          "name": "accountAddress",
          "type": "address"
        },
        {
          "name": "accountFieldName",
          "type": "uint8"
        }
      ],
      "name": "checkMilestones",
      "outputs": [],
      "payable": false,
      "stateMutability": "nonpayable",
      "type": "function"
    }
  ],
  "bytecode": "0x608060405234801561001057600080fd5b506040516020806107b9833981016040525160008054600160a060020a0319908116331790915560018054600160a060020a039093169290911691909117905561075a8061005f6000396000f3006080604052600436106100735763ffffffff60e060020a600035041662483b9481146100785780632100a5991461009f5780634e3c5062146100b9578063715018a6146100d1578063731beebf146100e65780638da5cb5b1461010d578063ce6c024b1461013e578063f2fde38b14610153575b600080fd5b34801561008457600080fd5b5061008d610174565b60408051918252519081900360200190f35b3480156100ab57600080fd5b506100b760043561017a565b005b3480156100c557600080fd5b506100b7600435610196565b3480156100dd57600080fd5b506100b76101b2565b3480156100f257600080fd5b506100b7600160a060020a036004351660ff6024351661021e565b34801561011957600080fd5b50610122610277565b60408051600160a060020a039092168252519081900360200190f35b34801561014a57600080fd5b5061008d610286565b34801561015f57600080fd5b506100b7600160a060020a036004351661028c565b60025481565b600054600160a060020a0316331461019157600080fd5b600355565b600054600160a060020a031633146101ad57600080fd5b600255565b600054600160a060020a031633146101c957600080fd5b60008054604051600160a060020a03909116917ff8df31144d9c2f0f6b59d69b8b98abd5459d07f2742c4df920b25aae33c6482091a26000805473ffffffffffffffffffffffffffffffffffffffff19169055565b600081600581111561022c57fe5b14806102435750600181600581111561024157fe5b145b156102565761025182610320565b610273565b600281600581111561026457fe5b14156102735761027382610320565b5050565b600054600160a060020a031681565b60035481565b600054600160a060020a031633146102a357600080fd5b600160a060020a03811615156102b857600080fd5b60008054604051600160a060020a03808516939216917f8be0079c531659141344cd1fd0a4f28419497f9722a3daafe3b4186f6b6457e091a36000805473ffffffffffffffffffffffffffffffffffffffff1916600160a060020a0392909216919091179055565b61032b816000610351565b801561033d575061033d816001610351565b1561034e5761034e816003546104f6565b50565b600080600061035e61069e565b600160a060020a03166314c6f21d6040518163ffffffff1660e060020a028152600401602060405180830381600087803b15801561039b57600080fd5b505af11580156103af573d6000803e3d6000fd5b505050506040513d60208110156103c557600080fd5b50516040517f9290b937000000000000000000000000000000000000000000000000000000008152600160a060020a0387811660048301908152921691639290b937918891889160240182600581111561041b57fe5b60ff16815260200192505050602060405180830381600087803b15801561044157600080fd5b505af1158015610455573d6000803e3d6000fd5b505050506040513d602081101561046b57600080fd5b50519150600160a060020a038216156104ee5781905080600160a060020a03166380007e836040518163ffffffff1660e060020a028152600401602060405180830381600087803b1580156104bf57600080fd5b505af11580156104d3573d6000803e3d6000fd5b505050506040513d60208110156104e957600080fd5b505192505b505092915050565b60008061050161069e565b915081600160a060020a03166309ccc1db6040518163ffffffff1660e060020a028152600401602060405180830381600087803b15801561054157600080fd5b505af1158015610555573d6000803e3d6000fd5b505050506040513d602081101561056b57600080fd5b5051604080517f63badc6e0000000000000000000000000000000000000000000000000000000081529051919250600160a060020a038416916363badc6e916004808201926020929091908290030181600087803b1580156105cc57600080fd5b505af11580156105e0573d6000803e3d6000fd5b505050506040513d60208110156105f657600080fd5b5051604080517f23b872dd000000000000000000000000000000000000000000000000000000008152600160a060020a038481166004830152878116602483015260448201879052915191909216916323b872dd9160648083019260209291908290030181600087803b15801561066c57600080fd5b505af1158015610680573d6000803e3d6000fd5b505050506040513d602081101561069657600080fd5b505050505050565b600154604080517f127f0f070000000000000000000000000000000000000000000000000000000081529051600092600160a060020a03169163127f0f0791600480830192602092919082900301818787803b1580156106fd57600080fd5b505af1158015610711573d6000803e3d6000fd5b505050506040513d602081101561072757600080fd5b50519190505600a165627a7a723058208e26aef1370fa925b24640f75d2942353988b53258716e7df9a132c2582eb9440029",
  "source": "pragma solidity ^0.4.23;\r\n\r\n\r\nimport \"./openzeppelin-solidity/Ownable.sol\";\r\nimport \"./AccountStorageAdapter.sol\";\r\nimport \"./KimlicContractsContext.sol\";\r\nimport \"./BaseVerification.sol\";\r\nimport \"./WithKimlicContext.sol\";\r\n\r\ncontract RewardingContract is Ownable, WithKimlicContext {\r\n    /// public attributes ///\r\n    uint public mielstone1Reward;\r\n    uint public mielstone2Reward;\r\n    \r\n    /// private attributes ///\r\n    \r\n    /// Constructors ///\r\n    constructor (address contextStorage) public WithKimlicContext(contextStorage) {\r\n    }\r\n\r\n    /// public methods ///\r\n    function setMilestone1Reward(uint rewardAmount) public onlyOwner() {\r\n        mielstone1Reward = rewardAmount;\r\n    }\r\n\r\n    function setMilestone2Reward(uint rewardAmount)  public onlyOwner() {\r\n        mielstone2Reward = rewardAmount;\r\n    }\r\n\r\n\r\n    function checkMilestones(address accountAddress, AccountStorageAdapter.AccountFieldName accountFieldName) public {\r\n        if (accountFieldName == AccountStorageAdapter.AccountFieldName.Email ||\r\n            accountFieldName == AccountStorageAdapter.AccountFieldName.Phone) {\r\n            \r\n            checkMilestone1(accountAddress);\r\n        } \r\n        else if (accountFieldName == AccountStorageAdapter.AccountFieldName.Identity) {\r\n            checkMilestone1(accountAddress);\r\n        }\r\n    }\r\n\r\n    /// private methods ///\r\n    function checkMilestone1(address accountAddress) private {\r\n        if (getIsDataVerified(accountAddress, AccountStorageAdapter.AccountFieldName.Email) &&\r\n            getIsDataVerified(accountAddress, AccountStorageAdapter.AccountFieldName.Phone)) {\r\n            \r\n            sendReward(accountAddress, mielstone2Reward);\r\n        }\r\n        \r\n    }\r\n\r\n    function checkMilestone2(address accountAddress) private {\r\n        if (getIsDataVerified(accountAddress, AccountStorageAdapter.AccountFieldName.Identity)) {\r\n            sendReward(accountAddress, mielstone2Reward);\r\n        }\r\n    }\r\n\r\n    function sendReward(address accountAddress, uint rewardAmount) private {\r\n        KimlicContractsContext context = getContext();\r\n\r\n        address communityTokenWalletAddress = context.getCommunityTokenWalletAddress();\r\n\r\n        context.getKimlicToken().transferFrom(communityTokenWalletAddress, accountAddress, rewardAmount);\r\n    }\r\n\r\n    function getIsDataVerified(address accountAddress, AccountStorageAdapter.AccountFieldName accountFieldName) \r\n            private view returns(bool isVerified) {\r\n        address verifiedBy = getContext().getAccountStorageAdapter()\r\n            .getLastAccountDataVerifiedBy(accountAddress, accountFieldName);\r\n        \r\n        if (verifiedBy != address(0)) {\r\n            BaseVerification verificationContract = BaseVerification(verifiedBy);   \r\n            isVerified = verificationContract.isVerified();\r\n        }\r\n    }\r\n}",
  "sourcePath": "C:\\work\\quorum.smart-contracts\\contracts\\RewardingContract.sol",
  "compiler": {
    "name": "solc",
    "version": "0.4.24+commit.e67f0147.Emscripten.clang"
  },
  "schemaVersion": "2.0.1",
  "updatedAt": "2018-06-26T13:41:58.495Z"
}