{
  "contractName": "RewardingContract",
  "abi": [
    {
      "constant": true,
      "inputs": [],
      "name": "mielstone1Reward",
      "outputs": [
        {
          "name": "",
          "type": "uint256"
        }
      ],
      "payable": false,
      "stateMutability": "view",
      "type": "function"
    },
    {
      "constant": false,
      "inputs": [],
      "name": "renounceOwnership",
      "outputs": [],
      "payable": false,
      "stateMutability": "nonpayable",
      "type": "function"
    },
    {
      "constant": true,
      "inputs": [],
      "name": "owner",
      "outputs": [
        {
          "name": "",
          "type": "address"
        }
      ],
      "payable": false,
      "stateMutability": "view",
      "type": "function"
    },
    {
      "constant": true,
      "inputs": [],
      "name": "mielstone2Reward",
      "outputs": [
        {
          "name": "",
          "type": "uint256"
        }
      ],
      "payable": false,
      "stateMutability": "view",
      "type": "function"
    },
    {
      "constant": false,
      "inputs": [
        {
          "name": "newOwner",
          "type": "address"
        }
      ],
      "name": "transferOwnership",
      "outputs": [],
      "payable": false,
      "stateMutability": "nonpayable",
      "type": "function"
    },
    {
      "inputs": [
        {
          "name": "contextStorage",
          "type": "address"
        }
      ],
      "payable": false,
      "stateMutability": "nonpayable",
      "type": "constructor"
    },
    {
      "anonymous": false,
      "inputs": [
        {
          "indexed": true,
          "name": "previousOwner",
          "type": "address"
        }
      ],
      "name": "OwnershipRenounced",
      "type": "event"
    },
    {
      "anonymous": false,
      "inputs": [
        {
          "indexed": true,
          "name": "previousOwner",
          "type": "address"
        },
        {
          "indexed": true,
          "name": "newOwner",
          "type": "address"
        }
      ],
      "name": "OwnershipTransferred",
      "type": "event"
    },
    {
      "constant": false,
      "inputs": [
        {
          "name": "rewardAmount",
          "type": "uint256"
        }
      ],
      "name": "setMilestone1Reward",
      "outputs": [],
      "payable": false,
      "stateMutability": "nonpayable",
      "type": "function"
    },
    {
      "constant": false,
      "inputs": [
        {
          "name": "rewardAmount",
          "type": "uint256"
        }
      ],
      "name": "setMilestone2Reward",
      "outputs": [],
      "payable": false,
      "stateMutability": "nonpayable",
      "type": "function"
    },
    {
      "constant": false,
      "inputs": [
        {
          "name": "accountAddress",
          "type": "address"
        },
        {
          "name": "accountFieldName",
          "type": "uint8"
        }
      ],
      "name": "checkMilestones",
      "outputs": [],
      "payable": false,
      "stateMutability": "nonpayable",
      "type": "function"
    }
  ],
  "bytecode": "0x608060405234801561001057600080fd5b506040516020806107c7833981016040525160008054600160a060020a03338116600160a060020a0319928316179092556001805492909316911617905561076a8061005d6000396000f3006080604052600436106100735763ffffffff60e060020a600035041662483b9481146100785780632100a5991461009f5780634e3c5062146100b9578063715018a6146100d1578063731beebf146100e65780638da5cb5b1461010d578063ce6c024b1461013e578063f2fde38b14610153575b600080fd5b34801561008457600080fd5b5061008d610174565b60408051918252519081900360200190f35b3480156100ab57600080fd5b506100b760043561017a565b005b3480156100c557600080fd5b506100b760043561019a565b3480156100dd57600080fd5b506100b76101ba565b3480156100f257600080fd5b506100b7600160a060020a036004351660ff6024351661022a565b34801561011957600080fd5b50610122610283565b60408051600160a060020a039092168252519081900360200190f35b34801561014a57600080fd5b5061008d610292565b34801561015f57600080fd5b506100b7600160a060020a0360043516610298565b60025481565b60005433600160a060020a0390811691161461019557600080fd5b600355565b60005433600160a060020a039081169116146101b557600080fd5b600255565b60005433600160a060020a039081169116146101d557600080fd5b60008054604051600160a060020a03909116917ff8df31144d9c2f0f6b59d69b8b98abd5459d07f2742c4df920b25aae33c6482091a26000805473ffffffffffffffffffffffffffffffffffffffff19169055565b600081600581111561023857fe5b148061024f5750600181600581111561024d57fe5b145b156102625761025d82610330565b61027f565b600281600581111561027057fe5b141561027f5761027f82610330565b5050565b600054600160a060020a031681565b60035481565b60005433600160a060020a039081169116146102b357600080fd5b600160a060020a03811615156102c857600080fd5b60008054604051600160a060020a03808516939216917f8be0079c531659141344cd1fd0a4f28419497f9722a3daafe3b4186f6b6457e091a36000805473ffffffffffffffffffffffffffffffffffffffff1916600160a060020a0392909216919091179055565b61033b816000610361565b801561034d575061034d816001610361565b1561035e5761035e81600354610506565b50565b600080600061036e6106ae565b600160a060020a03166314c6f21d6040518163ffffffff1660e060020a028152600401602060405180830381600087803b1580156103ab57600080fd5b505af11580156103bf573d6000803e3d6000fd5b505050506040513d60208110156103d557600080fd5b50516040517f9290b937000000000000000000000000000000000000000000000000000000008152600160a060020a0387811660048301908152921691639290b937918891889160240182600581111561042b57fe5b60ff16815260200192505050602060405180830381600087803b15801561045157600080fd5b505af1158015610465573d6000803e3d6000fd5b505050506040513d602081101561047b57600080fd5b50519150600160a060020a038216156104fe5781905080600160a060020a03166380007e836040518163ffffffff1660e060020a028152600401602060405180830381600087803b1580156104cf57600080fd5b505af11580156104e3573d6000803e3d6000fd5b505050506040513d60208110156104f957600080fd5b505192505b505092915050565b6000806105116106ae565b915081600160a060020a03166309ccc1db6040518163ffffffff1660e060020a028152600401602060405180830381600087803b15801561055157600080fd5b505af1158015610565573d6000803e3d6000fd5b505050506040513d602081101561057b57600080fd5b5051604080517f63badc6e0000000000000000000000000000000000000000000000000000000081529051919250600160a060020a038416916363badc6e916004808201926020929091908290030181600087803b1580156105dc57600080fd5b505af11580156105f0573d6000803e3d6000fd5b505050506040513d602081101561060657600080fd5b5051604080517f23b872dd000000000000000000000000000000000000000000000000000000008152600160a060020a038481166004830152878116602483015260448201879052915191909216916323b872dd9160648083019260209291908290030181600087803b15801561067c57600080fd5b505af1158015610690573d6000803e3d6000fd5b505050506040513d60208110156106a657600080fd5b505050505050565b600154604080517f127f0f070000000000000000000000000000000000000000000000000000000081529051600092600160a060020a03169163127f0f0791600480830192602092919082900301818787803b15801561070d57600080fd5b505af1158015610721573d6000803e3d6000fd5b505050506040513d602081101561073757600080fd5b50519190505600a165627a7a723058201cad400e930e9a50b50ade1216d062d73a75ff37dd22b2c44067a8c9c70c88140029",
  "source": "pragma solidity ^0.4.23;\r\n\r\n\r\nimport \"./openzeppelin-solidity/Ownable.sol\";\r\nimport \"./AccountStorageAdapter.sol\";\r\nimport \"./KimlicContractsContext.sol\";\r\nimport \"./BaseVerification.sol\";\r\nimport \"./WithKimlicContext.sol\";\r\n\r\ncontract RewardingContract is Ownable, WithKimlicContext {\r\n    /// public attributes ///\r\n    uint public mielstone1Reward;\r\n    uint public mielstone2Reward;\r\n    \r\n    /// private attributes ///\r\n    \r\n    /// Constructors ///\r\n    constructor (address contextStorage) public WithKimlicContext(contextStorage) {\r\n    }\r\n\r\n    /// public methods ///\r\n    function setMilestone1Reward(uint rewardAmount) public onlyOwner() {\r\n        mielstone1Reward = rewardAmount;\r\n    }\r\n\r\n    function setMilestone2Reward(uint rewardAmount)  public onlyOwner() {\r\n        mielstone2Reward = rewardAmount;\r\n    }\r\n\r\n\r\n    function checkMilestones(address accountAddress, AccountStorageAdapter.AccountFieldName accountFieldName) public {\r\n        if (accountFieldName == AccountStorageAdapter.AccountFieldName.Email ||\r\n            accountFieldName == AccountStorageAdapter.AccountFieldName.Phone) {\r\n            \r\n            checkMilestone1(accountAddress);\r\n        } \r\n        else if (accountFieldName == AccountStorageAdapter.AccountFieldName.Identity) {\r\n            checkMilestone1(accountAddress);\r\n        }\r\n    }\r\n\r\n    /// private methods ///\r\n    function checkMilestone1(address accountAddress) private {\r\n        if (getIsDataVerified(accountAddress, AccountStorageAdapter.AccountFieldName.Email) &&\r\n            getIsDataVerified(accountAddress, AccountStorageAdapter.AccountFieldName.Phone)) {\r\n            \r\n            sendReward(accountAddress, mielstone2Reward);\r\n        }\r\n        \r\n    }\r\n\r\n    function checkMilestone2(address accountAddress) private {\r\n        if (getIsDataVerified(accountAddress, AccountStorageAdapter.AccountFieldName.Identity)) {\r\n            sendReward(accountAddress, mielstone2Reward);\r\n        }\r\n    }\r\n\r\n    function sendReward(address accountAddress, uint rewardAmount) private {\r\n        KimlicContractsContext context = getContext();\r\n\r\n        address communityTokenWalletAddress = context.getCommunityTokenWalletAddress();\r\n\r\n        context.getKimlicToken().transferFrom(communityTokenWalletAddress, accountAddress, rewardAmount);\r\n    }\r\n\r\n    function getIsDataVerified(address accountAddress, AccountStorageAdapter.AccountFieldName accountFieldName) \r\n            private view returns(bool isVerified) {\r\n        address verifiedBy = getContext().getAccountStorageAdapter()\r\n            .getLastAccountDataVerifiedBy(accountAddress, accountFieldName);\r\n        \r\n        if (verifiedBy != address(0)) {\r\n            BaseVerification verificationContract = BaseVerification(verifiedBy);   \r\n            isVerified = verificationContract.isVerified();\r\n        }\r\n    }\r\n}",
  "sourcePath": "C:\\work\\quorum.smart-contracts\\contracts\\RewardingContract.sol",
  "compiler": {
    "name": "solc",
    "version": "0.4.23+commit.124ca40d.Emscripten.clang"
  },
  "schemaVersion": "2.0.0",
  "updatedAt": "2018-06-26T09:55:44.947Z"
}