{
  "contractName": "VerificationContractFactory",
  "abi": [
    {
      "constant": true,
      "inputs": [
        {
          "name": "",
          "type": "address"
        }
      ],
      "name": "createdContracts",
      "outputs": [
        {
          "name": "",
          "type": "bool"
        }
      ],
      "payable": false,
      "stateMutability": "view",
      "type": "function"
    },
    {
      "inputs": [
        {
          "name": "contextStorage",
          "type": "address"
        }
      ],
      "payable": false,
      "stateMutability": "nonpayable",
      "type": "constructor"
    },
    {
      "constant": true,
      "inputs": [
        {
          "name": "key",
          "type": "string"
        }
      ],
      "name": "getVerificationContract",
      "outputs": [
        {
          "name": "",
          "type": "address"
        }
      ],
      "payable": false,
      "stateMutability": "view",
      "type": "function"
    },
    {
      "constant": false,
      "inputs": [
        {
          "name": "account",
          "type": "address"
        },
        {
          "name": "coOwnerAddress",
          "type": "address"
        },
        {
          "name": "dataIndex",
          "type": "uint256"
        },
        {
          "name": "verificatorAddress",
          "type": "address"
        },
        {
          "name": "key",
          "type": "string"
        }
      ],
      "name": "createEmailVerification",
      "outputs": [],
      "payable": false,
      "stateMutability": "nonpayable",
      "type": "function"
    },
    {
      "constant": false,
      "inputs": [
        {
          "name": "account",
          "type": "address"
        },
        {
          "name": "coOwnerAddress",
          "type": "address"
        },
        {
          "name": "dataIndex",
          "type": "uint256"
        },
        {
          "name": "verificatorAddress",
          "type": "address"
        },
        {
          "name": "key",
          "type": "string"
        }
      ],
      "name": "createPhoneVerification",
      "outputs": [],
      "payable": false,
      "stateMutability": "nonpayable",
      "type": "function"
    },
    {
      "constant": false,
      "inputs": [
        {
          "name": "account",
          "type": "address"
        },
        {
          "name": "coOwnerAddress",
          "type": "address"
        },
        {
          "name": "dataIndex",
          "type": "uint256"
        },
        {
          "name": "verificatorAddress",
          "type": "address"
        },
        {
          "name": "key",
          "type": "string"
        }
      ],
      "name": "createDocumentVerification",
      "outputs": [],
      "payable": false,
      "stateMutability": "nonpayable",
      "type": "function"
    }
  ],
  "bytecode": "0x608060405234801561001057600080fd5b50604051602080611275833981016040525160008054600160a060020a03909216600160a060020a0319909216919091179055600160025561121e806100576000396000f3006080604052600436106100535763ffffffff60e060020a6000350416631a384c2281146100585780633b562a6d146100d25780635cb18176146101075780638575e5a51461017f578063c82796d9146101f4575b600080fd5b34801561006457600080fd5b50604080516020600460843581810135601f81018490048402850184019095528484526100d0948235600160a060020a0390811695602480358316966044359660643590941695369560a4949390910191819084018382808284375094975061026c9650505050505050565b005b3480156100de57600080fd5b506100f3600160a060020a0360043516610282565b604080519115158252519081900360200190f35b34801561011357600080fd5b50604080516020600460843581810135601f81018490048402850184019095528484526100d0948235600160a060020a0390811695602480358316966044359660643590941695369560a494939091019181908401838280828437509497506102979650505050505050565b34801561018b57600080fd5b506040805160206004803580820135601f81018490048402850184019095528484526101d89436949293602493928401919081908401838280828437509497506102a69650505050505050565b60408051600160a060020a039092168252519081900360200190f35b34801561020057600080fd5b50604080516020600460843581810135601f81018490048402850184019095528484526100d0948235600160a060020a0390811695602480358316966044359660643590941695369560a494939091019181908401838280828437509497506103179650505050505050565b61027b85858585856004610322565b5050505050565b60016020526000908152604090205460ff1681565b61027b85858585856000610322565b60006003826040518082805190602001908083835b602083106102da5780518252601f1990920191602091820191016102bb565b51815160209384036101000a6000190180199092169116179052920194855250604051938490030190922054600160a060020a0316949350505050565b61027b858585858560015b600080546002548291600160a060020a031690898989898861034261068b565b600160a060020a038089168252602082018890528681166040830152858116606083015260808201859052831660a082015260c0810182600581111561038457fe5b60ff168152602001975050505050505050604051809103906000f0801580156103b1573d6000803e3d6000fd5b50604080517ff2fde38b0000000000000000000000000000000000000000000000000000000081523360048201529051919350600160a060020a0384169163f2fde38b9160248082019260009290919082900301818387803b15801561041657600080fd5b505af115801561042a573d6000803e3d6000fd5b505050600160a060020a038316600090815260016020818152604092839020805460ff19169092179091559051865185945084935060039288929182918401908083835b6020831061048d5780518252601f19909201916020918201910161046e565b51815160209384036101000a60001901801990921691161790529201948552506040519384900301909220805473ffffffffffffffffffffffffffffffffffffffff1916600160a060020a039490941693909317909255506104ef9050610606565b600160a060020a03166363badc6e6040518163ffffffff1660e060020a028152600401602060405180830381600087803b15801561052c57600080fd5b505af1158015610540573d6000803e3d6000fd5b505050506040513d602081101561055657600080fd5b5051600254604080517f23b872dd000000000000000000000000000000000000000000000000000000008152600160a060020a038b8116600483015285811660248301526044820193909352905191909216916323b872dd9160648083019260209291908290030181600087803b1580156105d057600080fd5b505af11580156105e4573d6000803e3d6000fd5b505050506040513d60208110156105fa57600080fd5b50505050505050505050565b60008060009054906101000a9004600160a060020a0316600160a060020a031663127f0f076040518163ffffffff1660e060020a028152600401602060405180830381600087803b15801561065a57600080fd5b505af115801561066e573d6000803e3d6000fd5b505050506040513d602081101561068457600080fd5b5051919050565b604051610b578061069c833901905600608060405234801561001057600080fd5b5060405160e080610b5783398101604090815281516020830151918301516060840151608085015160a086015160c0909601516000805433600160a060020a031991821617909155600180548216600160a060020a0380891691909117808355600280548516838916179055600580548516838a16178155600387905560048054909516928c169290921790935560068990559698959694959394839260a060020a60ff02191690740100000000000000000000000000000000000000009084908111156100da57fe5b021790555050505050505050610a62806100f56000396000f3006080604052600436106100955763ffffffff60e060020a6000350416631e9b1312811461009a57806324de77ee146100cb5780633bc5de30146100e0578063715018a6146101d357806380007e83146101ea5780638da5cb5b14610213578063b7af4e0214610228578063d6d34c7c14610261578063e064c12f14610276578063f2fde38b14610290578063f70bd6dd146102b1575b600080fd5b3480156100a657600080fd5b506100af6102d8565b60408051600160a060020a039092168252519081900360200190f35b3480156100d757600080fd5b506100af6102e7565b3480156100ec57600080fd5b506100f56102f6565b604051808060200180602001838103835285818151815260200191508051906020019080838360005b8381101561013657818101518382015260200161011e565b50505050905090810190601f1680156101635780820380516001836020036101000a031916815260200191505b50838103825284518152845160209182019186019080838360005b8381101561019657818101518382015260200161017e565b50505050905090810190601f1680156101c35780820380516001836020036101000a031916815260200191505b5094505050505060405180910390f35b3480156101df57600080fd5b506101e86104f4565b005b3480156101f657600080fd5b506101ff610560565b604080519115158252519081900360200190f35b34801561021f57600080fd5b506100af610570565b34801561023457600080fd5b5061023d61057f565b6040518082600581111561024d57fe5b60ff16815260200191505060405180910390f35b34801561026d57600080fd5b506100af61058f565b34801561028257600080fd5b506101e8600435151561059e565b34801561029c57600080fd5b506101e8600160a060020a036004351661090c565b3480156102bd57600080fd5b506102c66109a0565b60408051918252519081900360200190f35b600554600160a060020a031681565b600454600160a060020a031681565b6000546060908190600160a060020a0316331461031257600080fd5b61031a6109a6565b600160a060020a03166314c6f21d6040518163ffffffff1660e060020a028152600401602060405180830381600087803b15801561035757600080fd5b505af115801561036b573d6000803e3d6000fd5b505050506040513d602081101561038157600080fd5b5051600580546001546003546040517f617aaa11000000000000000000000000000000000000000000000000000000008152600160a060020a0393841660048201818152949096169563617aaa1195909460a060020a90940460ff1693916024019084908111156103ee57fe5b60ff1681526020018281526020019350505050600060405180830381600087803b15801561041b57600080fd5b505af115801561042f573d6000803e3d6000fd5b505050506040513d6000823e601f3d908101601f19168201604090815281101561045857600080fd5b81019080805164010000000081111561047057600080fd5b8201602081018481111561048357600080fd5b815164010000000081118282018710171561049d57600080fd5b505092919060200180516401000000008111156104b957600080fd5b820160208101848111156104cc57600080fd5b81516401000000008111828201871017156104e657600080fd5b509496509450505050509091565b600054600160a060020a0316331461050b57600080fd5b60008054604051600160a060020a03909116917ff8df31144d9c2f0f6b59d69b8b98abd5459d07f2742c4df920b25aae33c6482091a26000805473ffffffffffffffffffffffffffffffffffffffff19169055565b60025460a060020a900460ff1681565b600054600160a060020a031681565b60015460a060020a900460ff1681565b600254600160a060020a031681565b600080548190600160a060020a031633146105b857600080fd5b60025460a060020a900460ff16156105cf57600080fd5b6105d76109a6565b915081600160a060020a03166363badc6e6040518163ffffffff1660e060020a028152600401602060405180830381600087803b15801561061757600080fd5b505af115801561062b573d6000803e3d6000fd5b505050506040513d602081101561064157600080fd5b5051600654604080517f70a0823100000000000000000000000000000000000000000000000000000000815230600482015290519293509091600160a060020a038416916370a082319160248083019260209291908290030181600087803b1580156106ac57600080fd5b505af11580156106c0573d6000803e3d6000fd5b505050506040513d60208110156106d657600080fd5b5051146106e257600080fd5b6002805474ff0000000000000000000000000000000000000000191660a060020a8515150217905560008054600654604080517fa9059cbb000000000000000000000000000000000000000000000000000000008152600160a060020a0393841660048201526024810192909252519184169263a9059cbb926044808401936020939083900390910190829087803b15801561077d57600080fd5b505af1158015610791573d6000803e3d6000fd5b505050506040513d60208110156107a757600080fd5b5050604080517f14c6f21d0000000000000000000000000000000000000000000000000000000081529051600160a060020a038416916314c6f21d9160048083019260209291908290030181600087803b15801561080457600080fd5b505af1158015610818573d6000803e3d6000fd5b505050506040513d602081101561082e57600080fd5b5051600580546001546040517f2ea0d356000000000000000000000000000000000000000000000000000000008152600160a060020a03928316600482018181529390951694632ea0d35694909360a060020a90930460ff16928992309242929160240190869081111561089e57fe5b60ff1681526020018415151515815260200183600160a060020a0316600160a060020a0316815260200182815260200195505050505050600060405180830381600087803b1580156108ef57600080fd5b505af1158015610903573d6000803e3d6000fd5b50505050505050565b600054600160a060020a0316331461092357600080fd5b600160a060020a038116151561093857600080fd5b60008054604051600160a060020a03808516939216917f8be0079c531659141344cd1fd0a4f28419497f9722a3daafe3b4186f6b6457e091a36000805473ffffffffffffffffffffffffffffffffffffffff1916600160a060020a0392909216919091179055565b60035481565b600154604080517f127f0f070000000000000000000000000000000000000000000000000000000081529051600092600160a060020a03169163127f0f0791600480830192602092919082900301818787803b158015610a0557600080fd5b505af1158015610a19573d6000803e3d6000fd5b505050506040513d6020811015610a2f57600080fd5b50519190505600a165627a7a7230582018bdc48d84ea3804ec20f7c099fa9855c8c67ddb2031570b7cb400adfacd0ff20029a165627a7a723058209dc9ed53ac54ed2cd885b49dfca8667ebcacc7c8638e73b6611a7bbf15b298730029",
  "source": "pragma solidity ^0.4.23;\r\n\r\n\r\nimport \"./openzeppelin-solidity/Ownable.sol\";\r\nimport \"./BaseVerification.sol\";\r\nimport \"./AccountStorageAdapter.sol\";\r\nimport \"./KimlicContractsContext.sol\";\r\nimport \"./WithKimlicContext.sol\";\r\nimport \"./KimlicToken.sol\";\r\n\r\ncontract VerificationContractFactory is WithKimlicContext {\r\n    /// public attributes ///\r\n    mapping(address=>bool) public createdContracts;\r\n\r\n    /// private attributes ///\r\n    uint private _rewardAmount;\r\n    mapping(string=>address) private contracts;\r\n\r\n    /// Constructors ///\r\n    constructor(address contextStorage) public WithKimlicContext(contextStorage) {\r\n        _rewardAmount = 1;\r\n    }\r\n\r\n    /// public methods ///\r\n    function getVerificationContract(string key) view public returns (address) {\r\n        return contracts[key];\r\n    }\r\n\r\n    function createEmailVerification(address account, address coOwnerAddress, uint dataIndex, address verificatorAddress, string key) public {\r\n        createBaseVerificationContract(\r\n            account, coOwnerAddress, dataIndex, verificatorAddress,\r\n            key, AccountStorageAdapter.AccountFieldName.Email);\r\n    }\r\n\r\n    function createPhoneVerification(address account, address coOwnerAddress, uint dataIndex, address verificatorAddress, string key) public {\r\n        createBaseVerificationContract(\r\n            account, coOwnerAddress, dataIndex, verificatorAddress,\r\n            key, AccountStorageAdapter.AccountFieldName.Phone);\r\n    }\r\n\r\n    function createDocumentVerification(address account, address coOwnerAddress, uint dataIndex, address verificatorAddress, string key) public {\r\n        createBaseVerificationContract(\r\n            account, coOwnerAddress, dataIndex, verificatorAddress,\r\n            key, AccountStorageAdapter.AccountFieldName.Documents);\r\n    }\r\n    \r\n    /// private methods ///\r\n    function createBaseVerificationContract(\r\n        address account, address coOwnerAddress, uint dataIndex, address verificatorAddress, string key,\r\n        AccountStorageAdapter.AccountFieldName accountFieldName) private {\r\n        \r\n        BaseVerification createdContract = new BaseVerification(\r\n            _storage, _rewardAmount, account, coOwnerAddress, dataIndex, verificatorAddress, accountFieldName);\r\n        createdContract.transferOwnership(msg.sender);\r\n\r\n        address createdContractAddress = address(createdContract);\r\n        createdContracts[createdContractAddress] = true;\r\n        contracts[key] = createdContractAddress;\r\n        getContext().getKimlicToken().transferFrom(coOwnerAddress, createdContractAddress, _rewardAmount);\r\n    }\r\n}\r\n",
  "sourcePath": "C:\\work\\quorum.smart-contracts\\contracts\\VerificationContractFactory.sol",
  "compiler": {
    "name": "solc",
    "version": "0.4.24+commit.e67f0147.Emscripten.clang"
  },
  "schemaVersion": "2.0.1",
  "updatedAt": "2018-06-26T13:41:58.490Z"
}